:020000040800F2
:10000000481D0020D5000008A90A0008350A00088C
:1000100000000000000000000000000000000000E0
:10002000000000000000000000000000E5100008D3
:100030000000000000000000731000082F110008ED
:10004000E7000008E7000008E7000008E7000008F4
:10005000E7000008E7000008E7000008E7000008E4
:10006000E7000008E7000008E7000008E7000008D4
:10007000E7000008E700000800000000E7000008B3
:1000800000000000E7000008000000000000000081
:10009000E700000800000000E7000008E700000893
:1000A000E7000008E7000008E7000008E700000894
:1000B000E7000008E7000008E7000008E700000884
:1000C0000348854600F02AF800480047311200082E
:1000D000481D00200448804704480047FEE7FEE72B
:1000E000FEE7FEE7FEE7FEE7BD110008C1000008DD
:1000F00030B50B46014600202022012409E00D46C0
:10010000D5409D4205D31D469540491B2546954047
:1001100040191546521E002DF1DC30BD064C01255C
:10012000064E05E0E36807CC2B430C3C984710349F
:10013000B442F7D3FFF7C8FF5C2B00087C2B000804
:1001400070B58C180578401C6B075B0F01D10378E4
:10015000401C2A1106D10278401C03E006780E707C
:10016000401C491C5B1EF9D12B0705D40023521EED
:100170000DD40B70491CFAE70378401CCB1A921C73
:1001800003E01D780D70491C5B1C521EF9D5A1427D
:10019000D8D3002070BD31B500F0CAF8044600F095
:1001A000C7F80099001B8842F9D338BDF8B5002381
:1001B0000124A2E027469F403A4070D04D68022DAE
:1001C00001D0122D14D1DD08AD002D1800952D6A37
:1001D0005E07AC46F50E0F26AE46AE406546B5430B
:1001E000AC460E697546AE4065462E43009D2E62B4
:1001F0004D68012D05D0022D03D0112D01D0122DF7
:1002000016D185680326AC465D00AE46AE40654615
:10021000B543AC46CE687546AE4065462E43866013
:1002200046680D79BE43ED06ED0F9D4035434560B0
:1002300006685F000325BD40AE46AE430D79B44667
:10024000AE07B60FBE4065462E430660C6687546CB
:10025000AE438D68BD403543C5604D68ED004BD55C
:10026000294D6E6B26436E639E08284DB6007519A6
:10027000AC46AD689E07360F0F27B740BD43052734
:100280003F07B84201D1002715E0214FB84201D104
:10029000012710E01F4FB84202D102270BE02BE0EC
:1002A0001D4FB84201D1032705E01C4FB84201D1D0
:1002B000052700E00627B7402F436546AF60184D7D
:1002C0002E684F689643FF0300D516432E606E6874
:1002D0004F689643BF0300D516436E60AE684F6803
:1002E0009643FF0200D51643AE60EE684F68964312
:1002F000BF0200D51643EE605B1C0A681546DD4060
:1003000000D057E7F8BD0000001002400000014097
:100310000004005000080050000C0050001C005069
:1003200000040140002A01D081617047816270475A
:100330000148006870470000A015002002480168CD
:10034000491C016070470000A015002010B5064848
:100350000168402211430160002000F007F800F01E
:1003600019F8002010BD00000020024010B504461E
:1003700007487D21C9000068FFF7BAFE00F03EFB88
:1003800000222146501E00F006F8002010BD00009B
:10039000A4150020704710B500F088FB10BD0000C8
:1003A000F8B5054653480E460068C007C00FB04276
:1003B0000AD2504801684908490031430160006889
:1003C000C007C00FB0426FD128784B4C800705D5CD
:1003D000E068F0218843A9680843E0602878C007F6
:1003E00052D06868022817D0032818D02168012845
:1003F00018D08905002957DAE16889088900014386
:10040000E160FFF795FF69680746022912D00329CA
:100410001CD0012926D033E021688903EAE721684E
:100420008901E7E74907E5E7FFF782FFC11B33488A
:10043000814223D8E0680007800F0228F4D123E02E
:10044000FFF776FFC11B2D48814217D8E0680007EF
:10045000800F0328F4D117E0FFF76AFFC11B27487C
:1004600081420BD8E0680007800F0128F4D10BE02F
:10047000FFF75EFFC11B2148814201D90320F8BD6F
:10048000E0680007800FF3D11A480168C907C90F57
:10049000B1420BD901684908490031430160006845
:1004A000C007C00FB04201D00120F8BD2878400736
:1004B00006D5E068072109028843E9680843E0603F
:1004C0002878000707D5E0680721C9028843296911
:1004D000C9000843E06000F01DF8E168084A090619
:1004E000090F515CC840074908600020FFF73EFF34
:1004F0000020F8BD002002400010024088130000D8
:10050000402B0008A4150020014800687047000037
:10051000A415002010B5184AD1680C200840042802
:100520000BD0082810D00C2810D050680004410FC0
:100530000120C003491C884010BD1068C00601D5C9
:100540000E4810BD0E4810BD0E4810BD88020E4B5F
:10055000000F185C0902D368890F491CDB0301D521
:10056000084A05E01268D20601D5044A00E0044AB0
:100570005043FFF7BDFD10BD0010024000093D00D3
:100580000024F40000127A00502B0008F8B504464D
:100590000078FE4DC0074AD0E8680007800F0228A7
:1005A00007D0E8680007800F032809D1E868C00376
:1005B00006D5286880033AD56068002873D036E0F5
:1005C000012062680004824203D129680143296046
:1005D00011E0052301211B0489049A422A6802D1F3
:1005E0000A432A60F1E782432A602A6802400092A7
:1005F000286888432860606800280CD0FFF798FEC0
:10060000064604E0FFF794FE801B64287ED8286825
:100610008003F7D50BE0FFF78BFE064604E0FFF7FB
:1006200087FE801B6428F1D828688003F7D42078DF
:10063000800741D5E8681F270007800F3F02012887
:1006400007D0E8680007800F032809D1E868C003D5
:1006500006D42868400717D5E068012823D113E0A5
:10066000E068002817D029680922914301432960D6
:10067000FFF75EFE064604E0FFF75AFE801B0228E5
:10068000C4D828684007F7D568682169B8430902CB
:100690000843686010E02868400840002860FFF7C1
:1006A00047FE064605E095E0FFF742FE801B022864
:1006B000ACD828684007F7D42078C00672D5E8681F
:1006C000B34E0007800F0AD0E06900282868B149BE
:1006D0005AD008432860FFF72BFE074644E02868FD
:1006E000800502D5E069002874D0606A69683140ED
:1006F000884212D900F0BEFC0028AFD16868616A58
:10070000B043084368606868000200E0DCE0218CC8
:10071000000A0906084368600FE06968B1430143B5
:1007200069606868218C0002000A09060843686055
:10073000606A00F09FFC002890D1606A410B0120A4
:10074000C003491C8840E96809060A0F9249895C80
:10075000C840924908600020FFF708FE22E0FFF73A
:10076000E7FDC01B02288BD828688005F7D568688C
:10077000616AB043084368606868218C0002000A1F
:100780000906084368600DE088432860FFF7D0FD44
:10079000064604E0FFF7CCFD801B022888D82868B5
:1007A0008005F7D420787E4E000723D560690028A5
:1007B000306910D0012108433061FFF7B9FD0746C9
:1007C00004E0FFF7B5FDC01B02287DD83069800723
:1007D000F7D50FE001E1400840003061FFF7A8FDC8
:1007E000074604E0FFF7A4FDC01B02286CD830695F
:1007F0008007F7D42078400760D5A86B0027C00099
:1008000005D4A86B012109070843A863012765489F
:100810000168C90511D40168821511430160FFF711
:1008200087FD009005E0FFF783FD0099401A6428DA
:100830004AD85C480068C005F5D55648A26882428F
:1008400003D131690143316111E001218902002A9C
:1008500007D005231B029A4203D132690A43326151
:10086000EFE7326982433261306988433061A068C2
:1008700000280ED0FFF75CFD009006E0FFF758FD62
:100880000099411A484881421ED830698005F5D543
:100890000DE0FFF74DFD009006E0FFF749FD0099E0
:1008A000411A414881420FD830698005F5D4002FA4
:1008B00004D0A96B012000078143A963207880063A
:1008C00030D53A48421400E080E0A169002916D0F2
:1008D000AB6801210B43AB606B6B0B436B63016A2D
:1008E00011430162FFF724FD064604E0FFF720FDF7
:1008F000801B02286AD8A8688007F7D512E0A9688B
:1009000049084900A960016A91430162FFF710FD9F
:10091000064604E0FFF70CFD801B022856D8A868A5
:100920008007F7D4A06A002855D0E9680907890F25
:10093000032952D0012636060228286805D0B04384
:100940002860FFF7F5FC044642E0B0432860FFF75B
:10095000EFFC074604E0FFF7EBFCC01B022835D88C
:1009600028688001F7D4216BE06AEA680843616B6C
:10097000FD231B049A4311430843E8602868304371
:100980002860FFF7D5FC044617E000000010024085
:1009900000E0000000010000402B0008A41500202A
:1009A0004010024000700040881300000000014029
:1009B000FFF7BEFC001B022808D828688001F7D585
:1009C00009E0FFF7B5FC001B022801D90320F8BDA0
:1009D00028688001F5D40020F8BD0120F8BD000092
:1009E000042204490428086902D090430861704732
:1009F0001043FBE700E000E070470000094910B534
:100A0000401E884201D9012010BD074C60610321BE
:100A1000081F00F04BF80020A06107202061002093
:100A200010BD0000FFFFFF0000E000E010B5FFF781
:100A3000E3FF10BDFEE710B50524240701220221C3
:100A40002046FFF76FFC012211462046FFF76AFCA3
:100A5000002202212046FFF765FC002201212046EA
:100A6000FFF760FC10BD10B50524012224071146D4
:100A70002046FFF757FC002202212046FFF752FCD8
:100A8000012202212046FFF74DFC10BD10B50524C0
:100A90000122240711462046FFF744FC00220121D1
:100AA0002046FFF73FFC10BD704700008307FF2280
:100AB000DB0E9A408907090E994000280BDA0007DF
:100AC000000F0838830808489B001818C36993432F
:100AD0000B43C3617047830804489B001B181868C8
:100AE000904308431860704700ED00E000E400E028
:100AF00010B50021084B0A460020C400E418401C31
:100B0000C0B262546428F8D3491CC9B20529F3D392
:100B100000F0EAF810BD0000A81500201C30CA083B
:100B20004B0700065B0F01219940430D03481B183A
:100B3000985CC0430843C04398547047A8150020F0
:100B40001C300306CA084907490F012088400349A1
:100B50005B0D59188B5C03438B547047A81500201C
:100B600030B55A4887B0C26A80210A43C262C26A5D
:100B70000A400592C16A01221143C162C16A114053
:100B80000591C36A02210B43C362C06A504C0840FE
:100B900000940590032005252D07039001920292F1
:100BA00069462846FFF702FB012221462846FFF747
:100BB000B9FB012204212846FFF7B4FB6420FFF7AC
:100BC000EAFA002204212846FFF7ACFBC820FFF711
:100BD000E2FA012204212846FFF7A4FB0021AE20FF
:100BE00000F02CFA0021D52000F028FA0021F02096
:100BF00000F024FA0021A82000F020FA002127208C
:100C000000F01CFA0021D32000F018FA0021084659
:100C100000F014FA0021402000F010FA00218D208D
:100C200000F00CFA0021142000F008FA0021202026
:100C300000F004FA0021022000F000FA0021A120B7
:100C400000F0FCF90021C82000F0F8F90021DA20BA
:100C500000F0F4F90021122000F0F0F90021AD209D
:100C600000F0ECF90021302000F0E8F900218120AB
:100C700000F0E4F90021FF2000F0E0F90021D92084
:100C800000F0DCF90021222000F0D8F90021DB205F
:100C900000F0D4F90021202000F0D0F90021A42098
:100CA00000F0CCF90021A62000F0C8F900210C20AA
:100CB00000F0C4F90021112000F0C0F90021AF209C
:100CC00000F0BCF9FFF714FF07B030BD0010024080
:100CD000FF8000000246012000E050430B46491E01
:100CE000C9B2002BF9D1704770B5104E00242046D0
:100CF000B030C0B2002100F0A1F90021084600F098
:100D00009DF90021102000F099F90025E8008019D4
:100D1000005D012100F092F96D1CEDB2642DF5D358
:100D2000641CE4B2052CE2D370BD0000A8150020BD
:100D3000F3B5002581B02C4610232A460D216420EE
:100D400000F092F86D1CEDB2019885421BD102981B
:100D50000025060114E00021184A0020CB009A1853
:100D60001718135C203F401CC0B23B760828F7D30D
:100D7000491CC9B29029EFD3FFF7B6FF6D1CEDB245
:100D8000AE42E8D80025641CE4B2102C00D1002447
:100D90000A4A00210020CB009B181F181E5C203F30
:100DA000401CC0B23E760828F7D3491CC9B290292E
:100DB000F0D3FFF799FF002CC6D1BDE7A81500209E
:100DC000FFB586B00C46D80805911D46590700D0DE
:100DD0000121401869084843C0B2203A0190D0B2BE
:100DE0000026049035E00C2D12D0102D15D0182DB2
:100DF00032D104982421484318494018875D0020C7
:100E000003903806069821460BD5FFF799FE0AE0B5
:100E100004980C2148431249EFE704981149000156
:100E2000EBE7FFF77BFE7806070E641C0598E4B23B
:100E3000201AA84205D10698059C401CC0B2069015
:100E400005E00398401CC0B203900828D9D3761C53
:100E5000F6B201988642C6D30AB0F0BDE41D000880
:100E600080130008F4170008FFB585B00020049037
:100E70000598019006980090D8081C4603904EE013
:100E800007986043C10804980818C0B202900498FB
:100E9000401CC0B2002504903FE0102C12D0182C4A
:100EA00014D0202C17D0402C3FD10298204940026A
:100EB0004018465D0027F0070699059810D0FFF707
:100EC0003FFE0FE002981B490001F1E7029848211C
:100ED00048431949ECE702981749C001D831E7E7C0
:100EE000FFF71CFE06987F1C401C7608C0B2FFB2BC
:100EF0000690082FDFD305980199401CC0B20590D9
:100F0000401AA04201D0009804E0059100980830F2
:100F1000C0B200906D1CEDB20690A542BDD30399FE
:100F2000481EC0B203900029AAD109B0F0BD00004C
:100F3000A005002068010020C8020020FFB581B094
:100F400007460A9800241E4645081AE0301B401E3A
:100F5000C1B20A20FFF7BEFE01460398FFF7C8F8AA
:100F60000A21FFF7C5F800290FD030312846604329
:100F7000C0190A9BCAB2C0B20299FFF721FF641CD4
:100F8000E4B2B442E2D305B0F0BD28466043C019D4
:100F9000C0B230220A9BEFE7FFB581B017460026AA
:100FA0000C4611E02146019800F034F8019D07E05D
:100FB0000A980121805D00F041F86D1CEDB2761CAD
:100FC000BD42F5D3641CE4B204988442EAD305B070
:100FD000F0BDFFB5044681B0580800901E46802041
:100FE0001546871B0FE0334620460299FFF7E8FEBF
:100FF00000980019C4B2A74204DA02980024801CA9
:10100000C0B202906D1C2A78104620385E28EAD9BA
:1010100005B0F0BD10B50446B031C8B2002100F0F3
:101020000DF81C342006000F0021103000F006F8E7
:101030002007000F002100F001F810BD70B50C462C
:101040000546FFF7F8FC782000F04DF8FFF71EFD8D
:10105000002C01D0402000E0002000F044F8FFF711
:1010600015FD284600F03FF8FFF710FDFFF7FBFCE9
:1010700070BD704770B517490023CA681206120F79
:1010800018D18A6B154CD500134A02D5126822403C
:1010900009E08E6B01252D072E438E6312688E6B3F
:1010A0002240AE438E63A24204D1032189038842C9
:1010B00000D101230A480168490849001943016029
:1010C0000068C007C00F984201D0012070BD002009
:1010D00070BD0000001002400070004000180000C9
:1010E00000200240704770B50024052605463607EB
:1010F000002201213046FFF715F9280601D501220B
:1011000000E0002202213046FFF70CF901221146CF
:101110003046FFF707F9002201213046FFF702F9B8
:101120006806641C050EE4B2082CE1D370BD10B54E
:10113000FFF704F9FFF77AFC10BD000030B51D4839
:1011400093B0816B0204114381631B480168032241
:10115000D2029143C21489180160022000900A90C3
:10116000400401250C9003950001102100240D90EE
:101170000B9404916846FFF709FA03200F9010942E
:10118000119401210E9512940EA8FFF709F9FFF7AB
:10119000BBF97D21C900FEF7ABFFFFF72FFC042050
:1011A000FFF71EFC00221146501EFFF7F4F813B0A3
:1011B00030BD00000010024000700040104801687F
:1011C000821511430160C1680E4A1140C160016877
:1011D0000D4A114001608168490849008160016839
:1011E0000122920491430160C168FD2212049143DF
:1011F000C160002101610549C0038860704700009B
:10120000001002400C40FF88F6FFF6FE00ED00E003
:1012100002E008C8121F08C1002AFAD170477047BF
:10122000002001E001C1121F002AFBD1704700001D
:1012300008B52024FFF782FFFFF788F8FFF790FC3E
:1012400005200022A1020007FFF76CF8FF25444E9D
:10125000F535102700210523482208460096FFF7A0
:101260009BFE2846FEF797FFFFF742FC0022102363
:1012700011460C20FFF7F8FD1023012200211C204D
:10128000FFF7F2FD1023022200212C20FFF7ECFDD6
:10129000102334A219460820FFF79BFEFFF724FD18
:1012A0002846FEF778FFFFF723FC002110232FA22A
:1012B0000846FFF78EFE10232EA219460020FFF7E6
:1012C00088FE1023224600213020FFF779FD641CA0
:1012D000E4B27E2C00D920240323224610213020A2
:1012E0000097FFF72BFEFFF7FFFC2846FEF753FFA2
:1012F000FFF7FEFB0022102311461046FFF7B4FD56
:101300000022182310211046FFF7AEFD00222023F3
:1013100011461820FFF7A8FDFFF7E6FC2846FEF768
:101320003AFFFFF7E5FB00210C2314A20846FFF764
:1013300050FE102311A20C210020FFF74AFE1823B3
:101340000EA200211C20FFF744FEFFF7CDFC28462B
:10135000FEF721FF04210B20FFF7EAFC7AE70000EB
:1013600000000020323031392F30320041534349E0
:10137000493A0000434F4445203A000041424300AF
:10138000000000000000000000000000000000005D
:101390003F4000000000000000003000400030002E
:1013A0004000000009000BC03D000BC03D000900DB
:1013B00018C024407FE0224031800000180024C083
:1013C0001B000D803240018003801C4027401C80A0
:1013D0000740004010006000000000000000000016
:1013E0000000000000001F8020404020000040203E
:1013F00020401F8000000000090006001F8006003A
:1014000009000000040004003F8004000400000004
:101410000010006000000000000000000400040054
:101420000400040004000000000000400000000070
:1014300000000000002001C006003800400000004D
:101440001F802040204020401F80000000001040EE
:101450003FC000400000000018C02140224024404E
:101460001840000010802040244024401B800000D1
:1014700002000D0011003FC0014000003C802440EC
:1014800024402440238000001F8024402440344016
:10149000038000003000200027C03800200000003A
:1014A0001B802440244024401B8000001C0022C0DC
:1014B000224022401F800000000000000840000081
:1014C00000000000000000000460000000000000B8
:1014D000000004000A0011002080404009000900BB
:1014E00009000900090000000000404020801100B0
:1014F0000A00040018002000234024001800000007
:101500001F802040274029401F400000004007C0A6
:1015100039000F0001C0004020403FC0244024405B
:101520001B8000001F8020402040204030800000B1
:1015300020403FC0204020401F80000020403FC08E
:1015400024402E4030C0000020403FC024402E00E8
:10155000300000000F001080204022403380020045
:1015600020403FC0040004003FC0204020402040F5
:101570003FC02040204000000060202020203FC0CD
:101580002000200020403FC024400B0030C02040FD
:1015900020403FC020400040004000C03FC03C0011
:1015A00003C03C003FC0000020403FC00C4023006F
:1015B0003FC020001F802040204020401F800000AE
:1015C00020403FC024402400180000001F8021401C
:1015D000214020E01FA0000020403FC02440260002
:1015E00019C0004018C0244024402240318000002F
:1015F000300020403FC020403000000020003F80ED
:10160000004000403F80200020003E0001C0070055
:1016100038002000380007C03C0007C03800000038
:10162000204039C0060039C020400000200038406A
:1016300007C0384020000000304021C0264038401C
:1016400020C00000000000007FE04020402000009B
:10165000000070000C0003800040000000004020EB
:1016600040207FE00000000000002000400020003B
:10167000000000000010001000100010001000100A
:101680000000000040000000000000000000028098
:101690000540054003C0004020003FC00440044016
:1016A0000380000000000380044004400640000066
:1016B00000000380044024403FC00040000003803D
:1016C0000540054003400000000004401FC02440C6
:1016D00024402000000002E0055005500650042080
:1016E00020403FC00440040003C00040000004400C
:1016F00027C000400000000000100010041027E088
:101700000000000020403FC00140070004C004402A
:10171000204020403FC000400040000007C00400BF
:1017200007C0040003C00000044007C004400400D8
:1017300003C0004000000380044004400380000018
:10174000041007F0045004400380000000000380F0
:101750000440045007F00010044007C00240040099
:1017600004000000000006400540054004C00000E1
:10177000000004001F8004400040000004000780B7
:101780000040044007C000400400070004C001807E
:1017900006000400060001C0070001C006000000AA
:1017A000044006C0010006C00440000004100710F9
:1017B00004E00180060004000000044005C006406B
:1017C000044000000000000004007BE04020000016
:1017D000000000000000FFF00000000000004020BA
:1017E0007BE004000000000040008000400020007A
:1017F0002000400000000000000000000000000089
:10180000000000000000000000001FCC000C0000E1
:1018100000000000000008003000600008003000F8
:1018200060000000022003FC1E20022003FC1E209A
:101830000220000000000E1811043FFF10840C78F5
:10184000000000000F0010840F3800C007781884D3
:101850000078000000780F8410C411240E9800E472
:10186000008400080800680070000000000000000C
:101870000000000000000000000007E0181820042D
:1018800040020000000040022004181807E0000099
:10189000000000000240024001800FF00180024081
:1018A000024000000080008000800FF8008000806F
:1018B000008000000001000D000E0000000000008C
:1018C0000000000000000080008000800080008098
:1018D000008000800000000C000C000000000000F0
:1018E00000000000000000060018006001800600F3
:1018F00018002000000007F0080810041004080871
:1019000007F000000000080408041FFC00040004A5
:101910000000000000000E0C10141024104411846C
:101920000E0C000000000C181004110411041288A1
:101930000C700000000000E00320042408241FFCB9
:101940000024000000001F98108411041104108866
:1019500010700000000007F00888110411041888B6
:101960000070000000001C00100010FC13001C00A0
:101970001000000000000E3811441084108411443F
:101980000E38000000000700088C1044104408883E
:1019900007F00000000000000000030C030C000032
:1019A000000000000000000000010106000000002F
:1019B0000000000000000080014002200410080820
:1019C0001004000002200220022002200220022037
:1019D000022000000000100408080410022001404A
:1019E0000080000000000E001200100C106C10802F
:1019F0000F00000003E00C1813E4142417C4082897
:101A000007D000000004003C03C41C40074000E471
:101A1000001C000410041FFC1104110411040E88A2
:101A20000070000003E00C181004100410041008EB
:101A30001C10000010041FFC1004100410040808FF
:101A400007F0000010041FFC1104110417C4100457
:101A50000818000010041FFC1104110017C010002A
:101A60000800000003E00C181004100410441C7857
:101A70000040000010041FFC1084008000801084CF
:101A80001FFC10040000100410041FFC10041004BC
:101A90000000000000030001100110011FFE1000F3
:101AA0001000000010041FFC110403801464181CB3
:101AB0001004000010041FFC1004000400040004C3
:101AC000000C000010041FFC1F0000FC1F001FFC86
:101AD0001004000010041FFC0C04030000E01018A8
:101AE0001FFC100007F00808100410041004080878
:101AF00007F0000010041FFC10841080108010807C
:101B00000F00000007F0081810241024101C080A09
:101B100007F2000010041FFC1104110011C0113065
:101B20000E0C000400000E1C1104108410841044DC
:101B30001C3800001800100010041FFC10041000D6
:101B40001800000010001FF8100400040004100426
:101B50001FF8100010001E0011E0001C0070138020
:101B60001C0010001FC0103C00E01F0000E0103CF3
:101B70001FC000001004180C163401C001C0163438
:101B8000180C100410001C00130400FC13041C00AB
:101B9000100000000804101C1064108413041C04BE
:101BA000101800000000000000007FFE400240020C
:101BB00040020000000030000C0003800060001CA8
:101BC0000003000000004002400240027FFE0000CF
:101BD0000000000000000000200040004000400025
:101BE00020000000000100010001000100010001CF
:101BF0000001000100004000400020000000000043
:101C00000000000000000098012401440144014448
:101C100000FC000410001FFC00880104010400887F
:101C2000007000000000007000880104010401043D
:101C30000088000000000070008801040104110801
:101C40001FFC0004000000F8014401440144014469
:101C500000C800000000010401040FFC110411047D
:101C600011001800000000D601290129012901C92D
:101C70000106000010041FFC0084010001000104A3
:101C800000FC000400000104190419FC0004000415
:101C9000000000000000000300010101190119FE0D
:101CA0000000000010041FFC0024004001B4010CDF
:101CB000010400000000100410041FFC00040004D4
:101CC00000000000010401FC0104010001FC01040A
:101CD000010000FC010401FC00840100010001047A
:101CE00000FC0004000000F80104010401040104E8
:101CF00000F80000010101FF0085010401040088D3
:101D0000007000000000007000880104010401055B
:101D100001FF00010104010401FC00840104010031
:101D200001800000000000CC0124012401240124D2
:101D30000198000000000100010007F801040104FF
:101D400000000000010001F8000400040004010884
:101D500001FC0004010001800170000C0010016012
:101D60000180010001F0010C003001C00030010CC5
:101D700001F0010000000104018C00740170018C6D
:101D800001040000010101810171000E00180160D1
:101D90000180010000000184010C01340144018430
:101DA000010C0000000000000000000001003EFCEB
:101DB000400240020000000000000000FFFF0000A1
:101DC000000000000000400240023EFC0100000054
:101DD0000000000000006000800080004000400023
:101DE00020002000000000000000000000000000B3
:101DF00000000000000000000000000000000000E3
:101E000000000000000000000000000000000000D2
:101E1000000000000000000F80380FFE380F8038EF
:101E200000000000000000000000000000000000B2
:101E300000000100000600000C0000380000310026
:101E4000000600000C000038000030000000000018
:101E50000000000061800067F807F98000618000E1
:101E600061800061800061800067F807F98000618F
:101E70008000000000000000000001C0E003E0F06E
:101E80000630080418081FFFFE040E080787F00339
:101E900081E000000000000001F000060C000404D6
:101EA00008060C7001F9C0000E00003BE000EC18C1
:101EB000070808040C180003E00000000001E0001F
:101EC00007F003F818041C0804170807E1D003C042
:101ED000E00023B0003C08002008000010000000D3
:101EE0000000000100003100003200001C00000072
:101EF00000000000000000000000000000000000E2
:101F000000000000000000000000000000000000D1
:101F1000000000007F0001FFC00780F00C001810D7
:101F20000004200002000000000000200002100059
:101F3000040C00180780F001FFC0007F00000000C3
:101F40000000000000000000000000000000000091
:101F50004200006600006600003C0000180003FF1D
:101F6000C0001800003C000066000066000042004F
:101F70000000000008000008000008000008000041
:101F8000080001FFC0000800000800000800000869
:101F900000000800000000000001000031000032D5
:101FA00000001C0000000000000000000000000015
:101FB0000000000000000000000000000800000811
:101FC00000000800000800000800000800000800E9
:101FD00000080000080000080000000000000000E9
:101FE0000000000038000038000038000000000049
:101FF00000000000000000000000000000000000E1
:1020000000000000000600001C00007000018000BD
:102010000E0000380000C0000700001C0000300067
:1020200000000000000000007F8001FFE0038070DE
:102030000600180400080400080600180380700158
:10204000FFE0007F800000000000000000000100B1
:102050000801000801000803FFF807FFF800000866
:10206000000008000008000000000000000000015F
:10207000C03802C05804009804011804021804046F
:1020800018061C1803F81801E0F800000000000012
:1020900000000001C0E003C0F004000804080804C8
:1020A000080806180803F41801E7F00001E0000032
:1020B00000000000000000000300000D00001100FF
:1020C00000610000810803010807FFF80FFFF80016
:1020D00001080001080000000000000000E007FC0B
:1020E000D00608080610080610080610080618385A
:1020F000060FF00607C0000000000000000000000E
:102100003F8001FFE0038430020818041008041027
:1021100008041008071810030FF00007C0000000A3
:1021200000000000000003C00007000006000006D9
:1021300000F80607F806180006E000070000060091
:102140000000000000000001E1E003F7F006341099
:10215000041808041808040C08040C0806161803D0
:10216000F3F001C1E000000000000000F80003FCF3
:1021700030030638040208040208040208040410AC
:102180000308F001FFC0007F000000000000000015
:102190000000000000000000000000007038007027
:1021A000380070380000000000000000000000004F
:1021B000000000000000000000000000000000001F
:1021C000301A00301C000000000000000000000079
:1021D00000000000000000000000000800001400E3
:1021E0000022000041000080800100400200200425
:1021F000001008000800000000000000210000217D
:102200000000210000210000210000210000210029
:10221000002100002100002100000000000000005B
:1022200000000800080400100200200100400080A7
:10223000800041000022000014000008000000009F
:1022400000000003C00004C00004000008003808BB
:102250000F380808380810000C300007E00003C0F1
:1022600000000000000000003F8000FFE0038070DD
:10227000020F1006708804C088048308047F880257
:10228000C09003012000FE4000000800001800017B
:10229000F8003E0801C20007020007E20000FE004D
:1022A000001FC80001F800003800000804000807FB
:1022B000FFF807FFF80408080408080408080408E1
:1022C0000806180803F41801E7F00001E000000018
:1022D000000000003F8001FFE0038070020018044E
:1022E000000804000804000804001006002007800D
:1022F000C000000004000807FFF807FFF80400080A
:102300000400080400080400180200100380700193
:10231000FFE0007F8000000004000807FFF807FFCF
:10232000F8040808040808040808040808043E081B
:1023300004000806001801006000000004000807FF
:10234000FFF807FFF8040808040800040800040860
:1023500000043E00060000060000018000000000AE
:10236000000000003F8001FFE003807006001804B9
:1023700000080402080402080203F00783F00002C8
:102380000000020004000807FFF807FFF80408082F
:102390000008000008000008000008000408080702
:1023A000FFF807FFF8040008000000000000040028
:1023B0000804000804000807FFF807FFF8040008F5
:1023C00004000804000800000000000000000000F5
:1023D00000060000070000010400010400010400E1
:1023E0000307FFFE07FFFC040000040000040000D8
:1023F00004000807FFF807FFF8040C0800180000A5
:102400003E0004C7800503C80600F8040038040035
:102410001800000804000807FFF807FFF804000888
:102420000000080000080000080000080000080084
:10243000001800006000000004000807FFF8078093
:102440000807FC00007FC00003F80007C000780008
:1024500007800807FFF807FFF804000804000807D2
:10246000FFF807000803C00000E000003800001E6D
:10247000000007000001C00400F007FFF80400009E
:10248000000000007F8001FFE00380700600180458
:10249000000804000806001803003001FFE0007F78
:1024A0008000000004000807FFF807FFF804040894
:1024B000040400040400040400040400060C0003E7
:1024C000F80001F000000000000000007F8001FF24
:1024D000E00380700600880400880400C806003C01
:1024E00003003E01FFE6007F8400000004000807AF
:1024F000FFF807FFF8040808040800040C00040FA4
:1025000000040BC00610F003F03801E008000008DA
:1025100000000001E0F803F0300630100418080451
:102520001808040C08040C080206180207F00781BA
:10253000E00000000180000600000400000400002C
:1025400004000807FFF807FFF8040008040000046F
:10255000000006000001800004000007FFE007FF04
:10256000F00400180000080000080000080000083F
:1025700000000804001007FFE0040000040000064B
:10258000000007E00007FE00041FE00001F8000063
:10259000380001E0043E0007C0000600000400000F
:1025A00004000007E00007FFC0041FF80007C00791
:1025B000F80007FF80043FF80007C004F800070098
:1025C0000004000000000004000806001807C0789E
:1025D00005F1C8003E00001F800463E80780F8068C
:1025E0000018040008000000040000060000078036
:1025F0000007E008047C08001FF80007F80018082E
:1026000004E00807000006000004000000000001CC
:1026100000080600380400F80403E8040F08047CEE
:102620000805F00807C00807001804006000000053
:102630000000000000000000000000000000003F5B
:10264000FFFE2000022000022000022000022000E5
:102650000200000000000000000008000007000069
:1026600000C0000038000006000001C0000030007B
:10267000000E00000100000000000000000020002B
:10268000022000022000022000022000023FFFFE84
:10269000000000000000000000000000000000003A
:1026A00000000000000800001000003000002000C2
:1026B00000300000100000080000000000000000D2
:1026C0000000010000010000010000010000010005
:1026D00000010000010000010000010000010000F5
:1026E00001000001000000000000000000200000C8
:1026F000200000100000100000000000000000009A
:1027000000000000000000000000000000F00019C0
:10271000F8001B18002208002608002408002410D6
:10272000003FF8001FF80000080000180000000437
:10273000000007FFF80FFFF0001818001008002035
:1027400008002008003018001FF0000FC000000033
:102750000000000007C0001FF00018300020080033
:102760002008002008003C08001C10000060000049
:10277000000000000000000007C0001FF000381833
:1027800000200800200800200804101007FFF80FA0
:10279000FFF0000010000000000000000000000733
:1027A000C0001FF00012300022180022080022088A
:1027B000003208001E10000E200000000000000083
:1027C000200000200800200801FFF803FFF8062081
:1027D000080420080420080720000300000000006F
:1027E00000000000000E000E6E001FF30031B1006B
:1027F00020B10020B1003191001F13002E1E0020D7
:102800000E00300000000004000807FFF80FFFF87A
:10281000001008002000002000002008003FF80001
:102820001FF8000008000000000000000000002069
:1028300008002008002008063FF8063FF8000008BE
:102840000000080000080000000000000000000078
:102850000000000003000003002001002001002010
:1028600003063FFE063FFC000000000000000000E1
:1028700000000004000807FFF80FFFF800018800BF
:102880000300002FC00038F80020380020080000A6
:102890000800000000000000000004000804000818
:1028A00004000807FFF80FFFF80000080000080008
:1028B0000008000000000000002008003FF8003F72
:1028C000F8001008002000003FF8003FF800100852
:1028D000002000003FF8003FF80000080000000062
:1028E0002008003FF8003FF800100800100000200A
:1028F00000002008003FF8001FF80000080000005A
:102900000000000007C0000FF00018300030080081
:102910002008002008003008001830000FF00007E1
:10292000C0000000000000002001003FFF003FFF4A
:102930000010110020090020080020080030380095
:102940001FF0000FC00000000000000007C0001FC3
:10295000F00038180020080020080020090010119D
:10296000001FFF003FFF00000100000000200800E2
:102970002008002008003FF8003FF8000808001079
:102980000800200800200000300000300000000097
:10299000000000000000000C78001E180033080042
:1029A00023080021080021880021980030F0003819
:1029B0006000000000000000200000200000200057
:1029C00000FFF003FFF800200800200800200800A6
:1029D0000030000000000000000000002000003F68
:1029E000F0007FF800001800000800000800201028
:1029F000003FF8007FF00000100000000000000021
:102A00002000003000003C00003F800023F0000068
:102A100078000070002380003C000030000020009F
:102A2000002000003C00003FE00023F80000E00030
:102A30002700003E00003FE00021F80001E0003EDA
:102A400000002000000000002008002008003838A6
:102A5000003E680027800003C8002CF800383800CA
:102A600020180020080000000000000020000030B6
:102A700003003C01003F830023EC00007000238032
:102A8000003C0000200000200000000000000000CA
:102A900000000038080020380020F80023E8002F4C
:102AA00088003E0800380800201800007000000070
:102AB0000000000000000000000000000000000016
:102AC00008000014001FF7FC300006200002000080
:102AD00000000000000000000000000000000000F6
:102AE000000000000000FFFFFF00000000000000E9
:102AF00000000000000000000000000000002000B6
:102B0000023000061FF7FC0014000008000000005F
:102B1000000000000000000000000000000000189D
:102B20000000600000400000400000200000100095
:102B3000000800000400000400000C000010000069
:102B4000000000000000000001020304060708095D
:102B5000030406080C101820300000007C2B00082D
:102B600000000020A815000040010008E82D000822
:102B7000A8150020A0070000201200084816FF0139
:102B80000D15FD158D01C101E101F10101F9F5E519
:102B90004D1DBD014E1DEDF5F901015FF191FD05E2
:102BA00075750330174575058DFD011119FDFD196A
:102BB0001141C1FDFDC1410101FFFF7A0102116E0A
:102BC00003050406070194060503595179013913D9
:102BD0004919413948911C3E3F03013583C7FE7CAA
:102BE000300BF0FC1E070303071EFCF06B06062AE1
:102BF0001BFCFE161918B48EFCF8C948280AE0F030
:102C0000F8DECFCFC3C1F03B300B0F3F78E0C0C040
:102C1000E0783F0F2808C0C0FFFFC0C0C0801C7311
:102C2000F7C6013BE37B1889480A438001198F1BD3
:102C3000F010012AFF05298619881A04012AFF05C8
:102C4000297118094040405F55555575041A5F0CAD
:102C50001911180C200F094989790909090F200F4A
:102C6000112FFE02424ACA4A032C4202FE9A380C35
:102C700040504C4340404F50505C40ED1BF88801A1
:102C80002AFF0552F81B1F08012A7F10149F80F0AD
:102C90003B8082016009E2A2928A86828080844021
:102CA000807F172424A4FEA3221B22CC5A4115089E
:102CB0000601FF2A019E1604FF02020239BC5B9046
:102CC0000863120810100444827F01808040432C66
:102CD000102846818019281E84E43C2724011AE428
:102CE0000C11140402011AFFBD19C4496415FE2217
:102CF0005A862BFE920129BF111DFF040807C51F2C
:102D000020030C142241E1178040201806802D0773
:102D10001820409E1201100B20702826212020240C
:102D200038602301013B10123C3D921212024021F7
:102D30001A3F948B103FC54BC080014BFC840803A5
:102D400036C0C03CFF7F40014AFF075B40FF600187
:102D500038034A7F700373FCF86CFFFE02018BFF9F
:102D6000FF0B0268036C1F1F04017BFFFF0B027443
:102D70001F038C7F3F07FFF8F8F0F0702001E60298
:102D800014801AFF0109122C09132D01FF01C0ED57
:102D9000FFFFFE06011AFF01F915391603FF0702AE
:102DA00001D10C12FFFFFF1409101509151601FFC0
:102DB00001C1EDFFFFFF18011914091015391601A3
:102DC000FF01D204120201011AFF01011209122AA5
:102DD00001FF01D71AFF0101FF01FD05FF1F1F0FB2
:082DE0000F01E41480841E00C1
:04000005080000C12E
:00000001FF
