:0300000002159353
:0C159300787FE4F6D8FD75812102111963
:1009DB00302E3432274F4C45442000FF010D15FDBE
:1009EB00158D01C101E101F10101F9F5E54D1DBDC8
:1009FB00BDBDBDBDBDBD1DEDF5F901010101010180
:100A0B0001F191FD057575057575057575054575CF
:100A1B00058DFD011119FDFD191141C1FDFDC141EF
:100A2B000101FFFF000000010001000100010001B6
:100A3B000000030504060707070707070707070654
:100A4B00050300000000000000000001010101018E
:100A5B00010101010101010101010100000001017E
:100A6B0000000000010100000000FFFF000000007B
:100A7B0000000000000000003E3F0303030383C798
:100A8B00FE7C000000F0FC1E070303071EFCF000B9
:100A9B0000000606FFFF000000000000FCFE07033D
:100AAB00030303078EFCF8000000000000000000A9
:100ABB000000FFFF0000000000000000000000002D
:100ACB00E0F0F8DECFCFC3C1F0F00000000F3F78AD
:100ADB00E0C0C0E0783F0F000000C0C0FFFFC0C007
:100AEB00C00000000173F7C6C6C6C6E37B3F0F000C
:100AFB0000000000000000000000FFFF80808080ED
:100B0B0080808080808080808080808080808080DA
:100B1B0080808080808080808080808080808080CA
:100B2B0080808080808080808080808080808080BA
:100B3B0080808080808080808080808080808080AA
:100B4B008080FF0003050911FF118905C300E00038
:100B5B00F000F8000000000000004428FF11AA4438
:100B6B00000000000000000000000000000000007A
:100B7B00000000000000000000000000000000006A
:100B8B00000000000000000000000000000000005A
:100B9B00000000000000000000000000008301388E
:100BAB0044829292740183000000000000007C4498
:100BBB00FF017D7D7D7D017D7D7D7D017D7D7D7D4C
:100BCB0001FF000000000000010001000100010016
:100BDB000100010000000000000000000101000006
:100BEB0000000000000000000000000000000000FA
:100BFB0000000000000000000000000000000000EA
:100C0B0000000000000000000000000000000000D9
:100C1B0000000000000000000000000000010100C7
:100C2B0000000000000101000000000000000000B7
:100C3B000101010101010101010101010101010199
:100C4B000101000000000000000000000000000097
:100C5B000000000000000000000000000000000089
:100C6B000000F80808080808080800F81860800059
:100C7B000000806018F80000002020F80000000041
:100C8B000000E0100808080810E00000002020F821
:100C9B000000000000000000000000000808080829
:100CAB000888681800000000000000000000000029
:100CBB000000000000000000000000000000000029
:100CCB000000000000000000000000000000000019
:100CDB000000000000000000000000000000000009
:100CEB0000007F01010101010100007F00000106EE
:100CFB0018060100007F00000040407F40400000CC
:100D0B0000001F2040404040201F00000040407F5B
:100D1B004040000000000060000000000000601870
:100D2B0006010000000000000000000000000000B1
:100D3B0000000000000000000000000000000000A8
:100D4B000000000000000000000000000000000098
:100D5B000000000000000000000000000000000088
:100D6B00000000000000000040202020C00000E038
:100D7B00202020E000000040E00000000060202068
:100D8B0020E00000000000E0202020E00000000038
:100D9B000040202020C0000040202020C000000088
:100DAB000000000000000000000000000000000038
:100DBB000000000000000000000000000000000028
:100DCB000000000000000000000000000000000018
:100DDB000000000000000000000000000000000008
:100DEB0000000000000000000C0A0A090C00000FB4
:100DFB000808080F000000080F080000000C080985
:100E0B00090E00000C00000F0909090F00000C006F
:100E1B00000C0A0A090C00000C0A0A090C0000005D
:100E2B0000000000000000000000000000000000B7
:100E3B0000000000000000000000000000000000A7
:100E4B000000000000000000000000000000000097
:100E5B000000000000000000000000000000000087
:100E6B000000000000000000000000000000000077
:100E7B0000000000000000000000000000000080E7
:100E8B0080808080808080000000000000000000D7
:100E9B000000000000000000000000000000000047
:100EAB000000000000000000000000000000000037
:100EBB000000000000000000000000000000000027
:100ECB00000000007F030C300C037F0000385454EB
:100EDB005800007C04047800003C40407C0000007B
:100EEB0000000000000000000000000000000000F7
:100EFB00000000000000000000000000000000FFE8
:100F0B00AAAAAA280800FF000000000000000000A9
:100F1B0000000000000000000000000000000000C6
:100F2B000000000000000000000000007F030C30F8
:100F3B000C037F0000264949493200007F02040858
:030F4B00107F0014
:10111900120F4E1214B9750820E4FBFDFF1212D606
:101129007B01E4FD7F121212D67B02E4FD7F2412BB
:1011390012D67B03E4FD7F361212D67B04E4FD7FD1
:10114900481212D67B05E4FD7F5A1212D67B06E4BB
:10115900FD7F6C1212D61214B9E4FBFD7F0A12123C
:10116900D67B01E4FD7F1C1212D67B02E4FD7F2EA3
:101179001212D67BFF7A0979DB750E107D03E4FF25
:101189001213B17FD07E071214F77FD07E07121495
:10119900F71214B9750C05750DFF750E09750FE673
:1011A9007B48E4FDFF1213487FD07E071214F77FB6
:0F11B900D07E071214F77FF47E011214F780978F
:100003000000000000000000002F000000000700B7
:10001300070000147F147F1400242A7F2A12006231
:1000230064081323003649552250000005030000DD
:1000330000001C224100000041221C000014083E65
:1000430008140008083E0808000000A0600000082B
:10005300080808080000606000000020100804027F
:10006300003E5149453E0000427F4000004261513D
:100073004946002141454B31001814127F100027D7
:1000830045454539003C4A4949300001710905039A
:1000930000364949493600064949291E00003636CB
:1000A300000000005636000000081422410000142E
:1000B300141414140000412214080002015109060B
:1000C30000324959513E007C1211127C007F49498C
:1000D3004936003E41414122007F4141221C007FBD
:1000E30049494941007F09090901003E4149497ACB
:1000F300007F0808087F0000417F41000020404145
:100103003F01007F08142241007F40404040007FB0
:10011300020C027F007F0408107F003E4141413EF4
:10012300007F09090906003E4151215E007F09193C
:1001330029460046494949310001017F0101003F39
:100143004040403F001F2040201F003F4038403FB9
:10015300006314081463000708700807006151491D
:10016300454300007F41410000552A552A550000B0
:1001730041417F000004020102040040404040402E
:10018300000001020400002054545478007F4844C6
:10019300443800384444442000384444487F0038FD
:1001A3005454541800087E0901020018A4A4A47C26
:1001B300007F080404780000447D400000408084F0
:1001C3007D00007F102844000000417F4000007C38
:1001D30004180478007C0804047800384444443844
:1001E30000FC242424180018242418FC007C080490
:1001F300040800485454542000043F444020003C69
:100203004040207C001C2040201C003C4030403CEF
:10021300004428102844001CA0A0A07C004464547F
:100223004C441414141414140000000000000000C3
:100233000000000000000000000000F800000000C3
:10024300000000333000000000100C06100C060004
:10025300000000000000000040C07840C07840006B
:10026300043F04043F040400007088FC08300000CD
:10027300001820FF211E0000F008F000E018000025
:1002830000211C031E211E0000F0088870000000DE
:100293001E2123241927211010160E000000000030
:1002A3000000000000000000000000E0180402004D
:1002B300000000071820400000020418E0000000BE
:1002C3000040201807000000404080F080404000BC
:1002D3000202010F01020200000000F00000000012
:1002E3000101011F010101000000000000000000E6
:1002F30080B070000000000000000000000000005B
:1003030000010101010101010000000000000000E3
:10031300003030000000000000000000806018047E
:10032300006018060100000000E010080810E0005B
:10033300000F102020100F00001010F80000000024
:100343000020203F2020000000700808088870006B
:1003530000302824222130000030088888483000EB
:100363000018202020110E000000C02010F800000B
:1003730000070424243F240000F8088888080800A4
:100383000019212020110E0000E0108888180000B9
:10039300000F112020110E0000380808C83808008B
:1003A3000000003F0000000000708808088870000B
:1003B300001C222121221C0000E010080810E0008C
:1003C3000000312222110F00000000C0C000000015
:1003D300000000303000000000000080000000003A
:1003E3000000806000000000000080402010080032
:1003F30000010204081020004040404040404000FB
:1004030004040404040404000008102040800000D5
:100413000020100804020100007048080808F000DA
:100423000000003036010000C030C828E810E000AA
:100433000718272423140B000000C038E000000035
:10044300203C23020227382008F88888887000009F
:10045300203F202020110E00C03008080808380073
:10046300071820202010080008F808080810E000EA
:10047300203F202020100F0008F88888E80810008B
:10048300203F20202320180008F88888E80810005F
:10049300203F200003000000C03008080838000097
:1004A30007182020221E020008F808000008F80898
:1004B300203F210101213F20000808F8080800001F
:1004C3000020203F2020000000000808F808080052
:1004D300C08080807F00000008F888C028180800CA
:1004E300203F20012638200008F808000000000003
:1004F300203F20202020300008F8F800F8F80800FA
:10050300203F003F003F200008F830C00008F808F3
:10051300203F200007183F00E01008080810E00003
:100523000F10202020100F0008F808080808F0001A
:10053300203F210101010000E01008080810E0003D
:100543000F18242438504F0008F8888888887000D2
:10055300203F2000030C3020007088080808380072
:100563000038202121221C00180808F80808180068
:100573000000203F2000000008F808000008F808E9
:10058300001F202020201F000878880000C838089A
:10059300000007380E010000F80800F80008F80012
:1005A300033C0700073C03000818688080681808AC
:1005B30020302C03032C30200838C800C83808002A
:1005C3000000203F2000000010080808C838080079
:1005D3002038262120201800000000FE020202001D
:1005E3000000007F40404000000C30C000000000CD
:1005F300000000010638C00000020202FE000000F5
:10060300004040407F00000000000402020204009A
:1006130000000000000000000000000000000000D7
:1006230080808080808080800002020400000000BF
:1006330000000000000000000000808080800000B7
:100643000019242222223F2008F8008080000000A5
:10065300003F112020110E00000000808080000068
:10066300000E112020201100000000808088F80077
:10067300000E112020103F200000808080800000A9
:10068300001F222222221300008080F0888888180D
:100693000020203F20200000000080808080800018
:1006A300006B94949493600008F8008080800000AD
:1006B300203F210000203F20008098980000000088
:1006C3000020203F202000000000008098980000B8
:1006D30000C08080807F000008F8000080808000D8
:1006E300203F24022D302000000808F800000000FD
:1006F3000020203F202000008080808080808000B8
:10070300203F20003F20003F808000808080000049
:10071300203F210000203F200000808080800000D7
:10072300001F202020201F00808000808000000008
:1007330080FFA12020110E00000000808080800037
:10074300000E112020A0FF80808080008080800028
:1007530020203F2120000100000080808080800055
:100763000033242424241900008080E080800000CA
:100773000000001F20200000808000000080800017
:10078300001F202020103F20808080000080808078
:1007930000010E3008060100808000800080808008
:1007A3000F300C030C300F0000808000808080002D
:1007B3000020312E0E312000808080000080808058
:1007C30080818E7018060100008080808080800008
:1007D3000021302C2221300000000000807C020226
:1007E30000000000003F404000000000FF00000048
:1007F30000000000FF0000000002027C80000000F7
:100803000040403F00000000000601010202040412
:1008130000000000000000000000F010101010FFA6
:1008230010101010F0000000000000000000000095
:10083300000000000000000000000F04040404FF97
:10084300040404040F000000000000000000000086
:1008530000000000000000004040405F5555557502
:100863005555555F40404000000000000000000067
:1008730000000000000000000040200F09498979B2
:100883000909090F204000000000000000000000DB
:10089300000000000000000000FE02424ACA4A4A6B
:1008A300CA4A4A4202FE00000000000000000000A5
:1008B300000000000000000000FF40504C43404097
:1008C3004F50505C40FF000000000000000000009B
:1008D30000000000000000000000F888888888FFFE
:1008E30088888888F80000000000000000000000ED
:1008F300000000000000000000001F080808087F37
:10090300888888889F80F0000000000000000000B5
:10091300000000000000000080828282828282E266
:10092300A2928A86828080000000000000000000FE
:100933000000000000000000000000000040807F75
:1009430000000000000000000000000000000000A4
:1009530000000000000000002424A4FEA3220022C3
:10096300CC0000FF000000000000000000000000B9
:100973000000000000000000080601FF000104045D
:10098300040404FF02020200000000000000000053
:100993000000000000000000101010FF10900888F5
:1009A3008888FF8888880800000000000000000095
:1009B30000000000000000000444827F01808040AA
:1009C300432C102846818000000000000000000036
:0809D30000000000000000001C
:1014F700EF4E60157D087C07ED1DAA0470011C4A9C
:0915070070F6EF1F70EA1E80E788
:0115100022B8
:09159F00D290D291C291C29022B7
:0715A800D290C291D2912202
:0B156700121456121572AF0412145635
:05157200D290C290229E
:07144F00AC0712159F7F7826
:10145600C290E4FEAD07530580BD8004D2918002A0
:0E146600C291EF25E0FFD290C2900EBE08E6C4
:011474002255
:0E15770012144F121572E4FF1215670215A828
:0E15850012144F1215727F401215670215A83E
:10142300E924B0FFE433FEE4FDFC12143EE4FDFCCA
:0B143300FFFE12143E7F10E4FDFCFEE3
:10143E00AB07AA06ED4C6003021585AF03121577B4
:01144E00227B
:021475008F1EC8
:10147700E4F9121423E4F51FAF1E7E007D017C0002
:1014870012143E051FE51FC3948040EC09B908E21A
:011497002232
:1014D900D3EF9400EE940040147D657C18ED1D70E7
:0D14E900011CED4C70F7EF1F70E61E80E354
:0114F60022D3
:10154000EF1FAA0670011E4A600BE4FDEDC3947BF9
:0515500050EE0D80F7D4
:011555002273
:1013F100A907ED24B0FFE433FEE4FDFC12143EE93D
:10140100241C54F0C4540F7E004410FFE4FDFC1270
:10141100143EE9241CFF7E00EF540FFFE4FDFC02A3
:02142100143E77
:101529007F8D12143AE4FDFC7F14FE12143EE4FD93
:07153900FC7FAFFE02143E2F
:10155600E4FDFC7F8D121434E4FDFC7FAEFE021424
:011566003E46
:1014B900E4F9121423E4F5097D017C00E4FFFE122E
:0F14C900143E0509E509C3948040ED09B908E315
:0114D80022F1
:10149800E4F9121423E4F5207D017C007F017E002D
:1014A80012143E0520E520C3948040EC09B908E2F7
:0114B8002211
:04105B008F108D1154
:10105F00E4F514F9EB24E0F514E510D3947F400781
:10106F00E4F51005110511E51364107069AD11AFAA
:10107F00101213F1E4F975F010E514A429F582E4C8
:10108F0035F0F583E582242BF582E5833402F58371
:10109F00E493FF7E007D017C0012143E09B908D64F
:1010AF00E51104FDAF101213F1E4F975F010E5141A
:1010BF00A429F582E435F0F583E5822433F582E542
:1010CF00833402F583E493FF7E007D017C001214CC
:1010DF003E09B908D622AD11AF101213F1E4F9751C
:1010EF00F006E514A42403F582E5F03400F583E55A
:1010FF008229F582E43583F583E493FF7E007D0139
:09110F007C0012143E09B906D659
:0111180022B4
:041511008F21A90578
:101515007F017E00AD0119ED6009AD217C0012113E
:03152500F580F15D
:0115280022A0
:08125C008F158D168A178B18FF
:10126400E4F51DF51BE51BC395195065C3E51995F8
:101274001B14FD7F0A121511AC17AD18CFCDCFCEBC
:10128400CCCE1212077C007D0A1212078D1CE51DBC
:101294007023E51914FFE51BC39F5019E51C701258
:1012A400E51AC313851BF0A42515FF851A137B20AB
:1012B4008016751D01E51AC313851BF0A42515FFBF
:1012C400E51C2430FB851A13AD1612105B051B8038
:0112D4009485
:0112D50022F6
:0A13B1008F098D0A8B0B8A0C890D41
:1013BB00E4F50FAB0BAA0CA90D850F8275830012F8
:1013CB0011C8FB6020850E13AD0AAF0912105B74B8
:1013DB00082509F509D394784007E4F509050A05B2
:0513EB000A050F80CE91
:0113F00022DA
:0612D6008F098D0A8B0B4D
:1012DC00E4F50C1213F1E4F975F040E50BA4241BB2
:1012EC00F582E5F03408F583E58229F582E435834F
:1012FC00F583E493FF7E007D017C0012143E050C07
:10130C0009B910D4E50A04FDAF091213F1E4F9751B
:10131C00F040E50BA4243BF582E5F03408F583E5B9
:10132C008229F582E43583F583E493FF7E007D0109
:0B133C007C0012143E050C09B910D40F
:011347002283
:041348008F098B0B73
:10134C00E4F510F511E50C5407700BE50C131313B1
:10135C00541FF513800AE50C131313541F04F513D3
:10136C008D13E513C3950C503BAD13AF091213F15C
:10137C00850912E512C3950B5026AB0DAA0EA90FC9
:10138C000511E511AE107002051014F5828E831252
:10139C0011C8FF7E007D017C0012143E051280D323
:0413AC00051380BEE7
:0113B000221A
:100F4E00E4FDFC7FAEFE12143EE4FDFC7FD5FE12E6
:100F5E00143EE4FDFC7FF0FE12143EE4FDFC7FA87F
:100F6E00FE12143EE4FDFC7F27FE12143EE4FDFC4F
:100F7E007FD3FE12143EE4FDFCFFFE12143EE4FD90
:100F8E00FC7F40FE12143EE4FDFC7F8DFE12143EEB
:100F9E00E4FDFC7F14FE12143EE4FDFC7F20FE12E5
:100FAE00143EE4FDFC7F02FE12143EE4FDFC7FA124
:100FBE00FE12143EE4FDFC7FC8FE12143EE4FDFC5E
:100FCE007FDAFE12143EE4FDFC7F12FE12143EE4A4
:100FDE00FDFC7FADFE12143EE4FDFC7F30FE1214CC
:100FEE003EE4FDFC7F81FE12143EE4FDFC7FFFFE1D
:100FFE0012143EE4FDFC7FD9FE12143EE4FDFC7F8C
:10100E0022FE12143EE4FDFC7FDBFE12143EE4FDD4
:10101E00FC7F20FE12143EE4FDFC7FA4FE12143E63
:10102E00E4FDFC7FA6FE12143EE4FDFC7F0CFE12D6
:10103E00143EE4FDFC7F11FE12143EE4FDFC7FAF76
:0D104E00FE12143E1214B9E4FDFF0213F16E
:1011C800BB010CE58229F582E5833AF583E02250DC
:1011D80006E92582F8E622BBFE06E92582F8E22226
:0D11E800E58229F582E5833AF583E4932240
:1011F500EF8DF0A4A8F0CF8CF0A428CE8DF0A42E0E
:02120500FE22C7
:10120700BC000BBE0029EF8DF084FFADF022E4CCCB
:10121700F875F008EF2FFFEE33FEEC33FCEE9DEC94
:10122700984005FCEE9DFE0FD5F0E9E4CEFD22EDDA
:10123700F8F5F0EE8420D21CFEADF075F008EF2F24
:10124700FFED33FD4007985006D5F0F222C398FD15
:051257000FD5F0EA22B2
:00000001FF
