:020000040800F2
:100000004821002009010008EF040008E704000867
:10001000EB040008A7010008D10C00080000000054
:100020000000000000000000000000005F0C00085D
:10003000AB010008000000005D0C0008610C000826
:100040002301000823010008230100082301000800
:1000500023010008230100082301000823010008F0
:1000600023010008230100082301000823010008E0
:1000700023010008230100082301000823010008D0
:1000800023010008230100082301000823010008C0
:1000900023010008230100082301000823010008B0
:1000A00000000000230100082301000823010008CC
:1000B0002301000823010008230100082301000890
:1000C0002301000823010008230100082301000880
:1000D0002301000823010008230100082301000870
:1000E0002301000823010008230100082301000860
:1000F00023010008DFF80CD000F018F80048004792
:10010000F50C0008482100200648804706480047B3
:10011000FEE7FEE7FEE7FEE7FEE7FEE7FEE7FEE7B7
:10012000FEE7FEE76D0C0008F5000008064C074DE1
:1001300006E0E06840F0010394E8070098471034B7
:10014000AC42F6D3FFF7DAFF08260008282600089D
:1001500070B58C1810F8015B15F0070301D110F889
:10016000013B2A1106D110F8012B03E010F8016BB6
:1001700001F8016B5B1EF9D12B0705D40023521E39
:100180000DD401F8013BFAE710F8013BCB1A921CA1
:1001900003E013F8015B01F8015B521EF9D5A1429F
:1001A000D8D3002070BD00BFFEE7704731B50024F2
:1001B00000F0F8F8044600BF00F0F4F8001B0099C6
:1001C0008842F9D338BD000078B5034600220024E8
:1001D0000020CAE0012696400D6805EA0604002CBE
:1001E00071D04D68022D02D04D68122D13D1D60862
:1001F00003F1200555F826005507EE0E0F25B540F2
:10020000A8435607F60E0D69B5402843D60803F1FA
:10021000200545F82600186856000325B540A84378
:100220000D7905F003055600B540284318604D6868
:10023000012D08D04D68022D05D04D68112D02D03A
:100240004D68122D13D1986856000325B540A84378
:100250005600CD68B5402843986058680125954000
:10026000A8430D79C5F30015954028435860D86818
:1002700056000325B540A84356008D68B540284375
:10028000D8604D6805F08055B5F1805F6CD100BF36
:10029000394D2D6845F00105374E356035462D68DE
:1002A00005F00105009500BF00BF344D960855F8D4
:1002B000260095072E0F0F25B540A843304DAB42C1
:1002C00002D1002515E04FE02E4DAB4201D10125B2
:1002D0000FE02D4DAB4201D102250AE02B4DAB4280
:1002E00001D1032505E02A4DAB4201D1042500E0F0
:1002F00005259607360FB5402843204D960845F84A
:100300002600244D2868A0434D6805F48035B5F5D6
:10031000803F00D120431F4D28602D1D2868A04339
:100320004D6805F40035B5F5003F00D12043194D67
:100330002D1D28602D1D2868A0434D6805F48015EB
:10034000B5F5801F00D12043124D083528602D1DC2
:100350002868A0434D6805F40015B5F5001F00D1CD
:1003600020430C4D0C352860521C0D68D540002DE3
:100370007FF430AF78BD0000203802400800014013
:10038000000002400004024000080240000C02404D
:1003900000100240000401400AB1816101E00B0439
:1003A000836170470148006870470000A41900206D
:1003B00002480068401C014908607047A4190020E9
:1003C00010B5032000F05CF8002000F005F800F004
:1003D00017F8002010BD000070B5044607480068FB
:1003E0004FF47A71B0FBF1F5284600F05EF8002278
:1003F0002146501E00F005F8002070BD6805002061
:1004000070472DE9F05F80460D461646002700F044
:100410006FF8074639462A46334601F00700C0F117
:10042000070ABAF1040F02D94FF0040A01E0C0F143
:10043000070AD14600F1040ABAF1070F02D24FF0C1
:10044000000A01E0A0F1030AD4464FF0010A0AFABB
:1004500009FAAAF1010A0AEA020A0AFA0CFA4FF0AA
:10046000010B0BFA0CFBABF1010B0BEA030B4AEA95
:100470000B042146404600F043F8BDE8F09F000021
:1004800000BF00F00702064B19684FF6FF03194042
:10049000044B0B4343EA0221014B196000BF704734
:1004A0000CED00E00000FA05704770B504462546E3
:1004B000681EB0F1807F01D301200FE0681E4FF06D
:1004C000E02148610F214FF0FF3000F019F80020C3
:1004D0004FF0E021886107200861002070BD10B551
:1004E000FFF7E2FF10BD00BFFEE700BFFEE7704769
:1004F00002480068C0F30220704700000CED00E0E5
:1005000010B5002807DA0A07140E054A00F00F0399
:100510001B1FD45403E00A07130E024A135410BDE4
:1005200018ED00E000E400E070B500240CE00025C8
:1005300006E00020074901EBC5010855681CC5B25B
:10054000642DF6DB601CC4B2052CF0DB00F030F942
:1005500070BD0000A819002070B500F11C03D8B2CE
:100560000B46CE1701EB5676C6F3C702CE1701EB4A
:100570005676F610A1EBC606F4B20123A340DDB215
:100580000D4B03EBC0039B5CDB430B4E06EBC0063D
:10059000B354094B03EBC0039B5C2B43064E06EBA5
:1005A000C006B354044B03EBC0039B5CDB43024E19
:1005B00006EBC006B35470BDA819002070B500F159
:1005C0001C02D0B20A46CE1701EB5676C6F3C7031B
:1005D000CE1701EB5676F610A1EBC606F4B2012257
:1005E000A240D5B2044A02EBC002D25C2A43024EBA
:1005F00006EBC006F25470BDA819002000B587B004
:1006000000BF6348006840F0200061490860084668
:10061000006800F02000019000BF00BF00BF084646
:10062000006840F0010008600846006800F0010022
:10063000019000BF00BF00BF0846006840F0020004
:1006400008600846006800F00200019000BF00BF8B
:1006500048F2FF00029001200390049003200590CF
:1006600002A94C48FFF7B0FD012248F2FF014948BA
:10067000FFF792FE012204214648FFF78DFE642019
:10068000FFF794FD002204214248FFF785FEC820B1
:10069000FFF78CFD012204213E48FFF77DFE00217B
:1006A000AE2000F099FA0021D52000F095FA002143
:1006B000F02000F091FA0021A82000F08DFA00212E
:1006C000272000F089FA0021D32000F085FA0021CC
:1006D000084600F081FA0021402000F07DFA002158
:1006E0008D2000F079FA0021142000F075FA002125
:1006F000202000F071FA0021022000F06DFA0021A4
:10070000A12000F069FA0021C82000F065FA00215C
:10071000DA2000F061FA0021122000F05DFA0021D9
:10072000AD2000F059FA0021302000F055FA0021E8
:10073000812000F051FA0021FF2000F04DFA002145
:10074000D92000F049FA0021222000F045FA0021CA
:10075000DB2000F041FA0021202000F03DFA0021CA
:10076000A42000F039FA0021A62000F035FA00217B
:100770000C2000F031FA0021112000F02DFA0021A8
:10078000AF2000F029FAFFF7CFFE07B000BD000050
:100790001C3802400000024010B50246012000E073
:1007A00050430B1EA1F10104E1B2F9D110BD0000CC
:1007B00070B500241CE004F1B001C8B2002100F0C3
:1007C0000BFA0021084600F007FA0021102000F083
:1007D00003FA002508E0084901EBC501085D012185
:1007E00000F0FAF9681CC5B2642DF4DB601CC4B2D9
:1007F000052CE0DB70BD0000A8190020804689466A
:100800000026002749E03FB9102332460D2164201D
:1008100000F0C4F8701CC6B2464522D14FF0000A61
:100820001AE0002410E000250AE01C4800EBC40098
:10083000415D601E194A02EBC0004155681CC5B2FB
:10084000082DF2DB601CC4B2902CECDBFFF7B0FF8C
:100850000AF1010000F0FF0A4FEA09105045E0DC00
:100860000026781CC7B2102F00D10027002410E00A
:1008700000250AE0094800EBC400415D601E074AFC
:1008800002EBC0004155681CC5B2082DF2DB601CAC
:10089000C4B2902CECDBFFF78BFFB4E7A819002063
:1008A0002DE9FF4F81B080460E461C46009620463B
:1008B000E31704EB5373DB1021464FEAE47C04EBAF
:1008C0005C7C4FEAEC0CA4EBCC0CBCF1000F02D02A
:1008D0004FF0010C01E04FF0000C6344224604EBA2
:1008E000D27C4FEA6C0C03FB0CF303F0FF0B039874
:1008F0002038C7B2002547E00C2C07D107EB470092
:10090000234901EB800010F805A014E0102C05D15C
:10091000204800EB071010F805A00CE0182C07D1B8
:1009200007EBC7001C4901EB800010F805A002E0AE
:1009300005B0BDE8F08F4FF000091FE00AF080001D
:1009400020B131464046FFF739FE03E031464046CC
:10095000FFF702FE4FEA4A604FEA106A701CC6B207
:100960000098301AA04205D1009E08F1010000F065
:10097000FF0806E009F1010000F0FF09B9F1080FD6
:10098000DCDB00BF681CC5B25D45B5DB00BFCFE74F
:10099000480E0008BC120008AC1800082DE9FF4FF3
:1009A0000746884691461C464FF0000B0297CDF84B
:1009B00004802046E11704EB5171C1F3C701009197
:1009C00060E009FB04F0C11700EB51710BEBE10192
:1009D000CEB20BF1010000F0FF0B002550E0102C0F
:1009E00005D12C4800EB0610405D03901BE0182C4D
:1009F00007D106EBC600284901EBC000405D03901B
:100A000011E0202C05D1254800EBC610405D039075
:100A100009E0402C05D1224800EB4620405D0390C0
:100A200001E0BDE8FF8F4FF0000A17E0039800F0E7
:100A3000010020B141463846FFF7C0FD03E04146C2
:100A40003846FFF789FD03984010039008F1010034
:100A500000F0FF080AF1010000F0FF0ABAF1080FE8
:100A6000E4DB781CC7B20298381AA04204D1029F76
:100A700001980830C0B20190DDF80480681CC5B24E
:100A8000A542ACDB0098411EC9B20091002898D164
:100A900000BFC6E76C050020CC060020A40700209C
:100AA000A40900202DE9F04F06468A4691461F46CC
:100AB000099C00252CE0781B401EC1B20A20FFF7DC
:100AC0006BFEB9FBF0F00A21B0FBF1F201FB12085A
:100AD000B8F1000F0CD1A34604EBDB71491001FB08
:100AE0000561C8B2234630225146FFF7D9FE0DE01A
:100AF000A34604EBDB71491001FB0561C8B208F1A4
:100B00003001CAB223465146FFF7CAFE681CC5B27F
:100B1000BD42D0DBBDE8F08F2DE9F05F05460E4603
:100B200017469846DDF828B04FF00009344614E027
:100B30002146284600F036F8AA460AE01BF80900CC
:100B4000012100F049F809F101090AF1010000F062
:100B5000FF0ABA45F2DB601CC4B24445E8DBBDE8DD
:100B6000F09FF0B506460F4614461D4613E0227866
:100B70002B4639463046FFF793FE284605EBD071E9
:100B800006EB6101CEB2C5F18000B04202DA002668
:100B9000B81CC7B2641C2078202802DB20787E288D
:100BA000E5DDF0BD70B504460D4605F1B001C8B2F3
:100BB000002100F011F804F11C01C1F3031141F010
:100BC0001000002100F008F8211F01F00F000021A3
:100BD00000F002F870BD000070B504460E462EB15C
:100BE000012208211C48FFF7D7FB04E0002208215E
:100BF0001948FFF7D1FB002210211748FFF7CCFB63
:100C000000251BE0002201211348FFF7C5FB04F07B
:100C1000800028B1012202210F48FFF7BDFB04E04C
:100C2000002202210C48FFF7B7FB012211460A48B7
:100C3000FFF7B2FB6006040E681CC5B2082DE1DBAD
:100C4000012210210448FFF7A7FB012208210248D6
:100C5000FFF7A2FB70BD0000000002407047704724
:100C600010B5FFF7A5FBFFF73AFC10BD144800686C
:100C700040F480701249086011480830006811493A
:100C800008400F49083108600D4800680E490840C7
:100C90000B4908600846006820F480200860084876
:100CA0000830006820F47D00054908310860002004
:100CB000091D08604FF0006004490860704700009B
:100CC000003802400CC0FF88FEFFFEEE08ED00E099
:100CD00000BFFEE702E008C8121F08C1002AFAD1CF
:100CE00070477047002001E001C1121F002AFBD1AC
:100CF0007047000008B52024FFF762FBFFF77EFC79
:100D00000022A1024748FFF747FB8AE04648052337
:100D10004822002100900846FFF7FEFE4FF4FA70CB
:100D2000FFF744FAFFF700FC1023002211460C20C5
:100D3000FFF734FE1023012200211C20FFF72EFEB6
:100D40001023022200212C20FFF728FE102337A2B7
:100D500019460820FFF705FFFFF72AFD4FF4FA7048
:100D6000FFF724FAFFF7E0FB102332A20021084628
:100D7000FFF7F7FE102331A219460020FFF7F1FE1E
:100D80001023224600213020FFF78AFD601CC4B2E8
:100D90007E2C00DD202410200323224601460090F3
:100DA0003020FFF77FFEFFF703FD4FF4FA70FFF7E7
:100DB000FDF9FFF7B9FB1023002211461046FFF79B
:100DC000EDFD1823002210211046FFF7E7FD202338
:100DD000002211461820FFF7E1FDFFF7E9FC4FF470
:100DE000FA70FFF7E3F9FFF79FFB0C2315A2002130
:100DF0000846FFF7B6FE102312A20C210020FFF7D1
:100E0000B0FE18230FA200211C20FFF7AAFEFFF757
:100E1000CFFC4FF4FA70FFF7C9F904210B20FFF75C
:100E2000EDFC73E700000240000000203230313951
:100E30002F30320041534349493A0000434F444563
:100E4000203A000041424300000000000000000082
:100E500000000000000000003F4000000000000013
:100E600000003000400030004000000009000BC0CE
:100E70003D000BC03D00090018C024407FE0224027
:100E800031800000180024C01B000D80324001801A
:100E900003801C4027401C80074000401000600079
:100EA00000000000000000000000000000001F80A3
:100EB000204040200000402020401F800000000013
:100EC000090006001F80060009000000040004005D
:100ED0003F800400040000000010006000000000DB
:100EE00000000000040004000400040004000000EE
:100EF000000000400000000000000000002001C0D1
:100F000006003800400000001F80204020402040A4
:100F10001F800000000010403FC0004000000000A3
:100F200018C021402240244018400000108020407A
:100F3000244024401B80000002000D0011003FC02F
:100F4000014000003C8024402440244023800000D5
:100F50001F802440244034400380000030002000E3
:100F600027C03800200000001B802440244024407B
:100F70001B8000001C0022C0224022401F80000075
:100F80000000000008400000000000000000000019
:100F90000460000000000000000004000A001100CE
:100FA00020804040090009000900090009000000F4
:100FB00000004040208011000A00040018002000BA
:100FC00023402400180000001F80204027402940B3
:100FD0001F400000004007C039000F0001C0004062
:100FE00020403FC0244024401B8000001F80204040
:100FF000204020403080000020403FC02040204062
:101000001F80000020403FC024402E4030C0000020
:1010100020403FC024402E00300000000F00108010
:10102000204022403380020020403FC004000400E2
:101030003FC02040204020403FC0204020400000D2
:101040000060202020203FC02000200020403FC022
:1010500024400B0030C0204020403FC020400040D2
:10106000004000C03FC03C0003C03C003FC0000047
:1010700020403FC00C4023003FC020001F80204084
:10108000204020401F80000020403FC0244024001A
:10109000180000001F802140214020E01FA0000018
:1010A00020403FC02440260019C0004018C0244002
:1010B0002440224031800000300020403FC02040CA
:1010C0003000000020003F80004000403F802000B2
:1010D00020003E0001C0070038002000380007C093
:1010E0003C0007C038000000204039C0060039C06D
:1010F000204000002000384007C038402000000099
:10110000304021C02640384020C0000000000000D0
:101110007FE0402040200000000070000C000380B1
:10112000004000000000402040207FE00000000060
:10113000000020004000200000000000001000100F
:10114000001000100010001000000000400000001F
:1011500000000000000002800540054003C0004080
:1011600020003FC0044004400380000000000380D2
:101170000440044006400000000003800440244076
:101180003FC00040000003800540054003400000D0
:10119000000004401FC0244024402000000002E062
:1011A000055005500650042020403FC00440040074
:1011B00003C000400000044027C0004000000000C1
:1011C00000100010041027E00000000020403FC085
:1011D0000140070004C00440204020403FC00040C0
:1011E0000040000007C0040007C0040003C0000066
:1011F000044007C00440040003C000400000038016
:101200000440044003800000041007F00450044030
:1012100003800000000003800440045007F0001029
:10122000044007C002400400040000000000064023
:101230000540054004C00000000004001F80044079
:1012400000400000040007800040044007C0004048
:101250000400070004C0018006000400060001C06D
:10126000070001C006000000044006C0010006C0DF
:10127000044000000410071004E001800600040090
:101280000000044005C006400440000000000000CB
:1012900004007BE040200000000000000000FFF0A0
:1012A00000000000000040207BE00400000000007F
:1012B00040008000400020002000400000000000AE
:1012C000000000000000000000000000000000001E
:1012D00000001FCC000C000000000000000008000F
:1012E000300060000800300060000000022003FCB5
:1012F0001E20022003FC1E200220000000000E1809
:1013000011043FFF10840C78000000000F001084CF
:101310000F3800C0077818840078000000780F8428
:1013200010C411240E9800E400840008080068002E
:10133000700000000000000000000000000000003D
:10134000000007E0181820044002000000004002DE
:101350002004181807E000000000000002400240CE
:1013600001800FF0018002400240000000800080F8
:1013700000800FF800800080008000000001000D58
:10138000000E0000000000000000000000000080CF
:101390000080008000800080008000800000000C41
:1013A000000C00000000000000000000000000062B
:1013B000001800600180060018002000000007F0FF
:1013C000080810041004080807F0000000000804D2
:1013D00008041FFC000400040000000000000E0CC4
:1013E00010141024104411840E0C000000000C187E
:1013F00010041104110412880C700000000000E0B9
:101400000320042408241FFC0024000000001F986F
:10141000108411041104108810700000000007F0FF
:1014200008881104110418880070000000001C00D6
:10143000100010FC13001C001000000000000E380B
:1014400011441084108411440E380000000007007D
:10145000088C10441044088807F0000000000000C9
:101460000000030C030C000000000000000000005E
:1014700000010106000000000000000000000080E4
:10148000014002200410080810040000022002207D
:10149000022002200220022002200000000010048E
:1014A00008080410022001400080000000000E0027
:1014B0001200100C106C10800F00000003E00C18DC
:1014C00013E4142417C4082807D000000004003CCB
:1014D00003C41C40074000E4001C000410041FFC6F
:1014E0001104110411040E880070000003E00C18B0
:1014F00010041004100410081C10000010041FFC3D
:10150000100410041004080807F0000010041FFC69
:101510001104110417C410040818000010041FFC63
:101520001104110017C010000800000003E00C189F
:101530001004100410441C780040000010041FFC2C
:1015400010840080008010841FFC10040000100430
:1015500010041FFC10041004000000000003000130
:10156000100110011FFE10001000000010041FFCED
:10157000110403801464181C1004000010041FFCE4
:101580001004000400040004000C000010041FFC00
:101590001F0000FC1F001FFC1004000010041FFCB3
:1015A0000C04030000E010181FFC100007F00808EE
:1015B000100410041004080807F0000010041FFCB9
:1015C00010841080108010800F00000007F00818B1
:1015D00010241024101C080A07F2000010041FFC3D
:1015E0001104110011C011300E0C000400000E1C7B
:1015F00011041084108410441C38000018001000DE
:1016000010041FFC100410001800000010001FF848
:1016100010040004000410041FF8100010001E0045
:1016200011E0001C007013801C0010001FC0103C53
:1016300000E01F0000E0103C1FC000001004180C68
:10164000163401C001C01634180C100410001C0020
:10165000130400FC13041C00100000000804101CFC
:101660001064108413041C04101800000000000013
:1016700000007FFE400240024002000000003000F7
:101680000C0003800060001C00030000000040020A
:10169000400240027FFE0000000000000000000049
:1016A0002000400040004000200000000001000138
:1016B00000010001000100010001000100004000E4
:1016C0004000200000000000000000000000009822
:1016D000012401440144014400FC000410001FFCEB
:1016E0000088010401040088007000000000007000
:1016F000008801040104010400880000000000705B
:1017000000880104010411081FFC0004000000F817
:10171000014401440144014400C8000000000104E8
:1017200001040FFC1104110411001800000000D680
:1017300001290129012901C90106000010041FFC2B
:10174000008401000100010400FC00040000010409
:10175000190419FC0004000400000000000000034C
:1017600000010101190119FE0000000010041FFC16
:101770000024004001B4010C01040000000010042A
:1017800010041FFC0004000400000000010401FC20
:101790000104010001FC0104010000FC010401FC42
:1017A000008401000100010400FC0004000000F8B6
:1017B000010401040104010400F80000010101FF1B
:1017C0000085010401040088007000000000007022
:1017D000008801040104010501FF00010104010466
:1017E00001FC00840104010001800000000000CC25
:1017F00001240124012401240198000000000100BB
:10180000010007F80104010400000000010001F8D4
:10181000000400040004010801FC00040100018030
:101820000170000C001001600180010001F0010C4A
:10183000003001C00030010C01F001000000010483
:10184000018C00740170018C010400000101018110
:101850000171000E00180160018001000000018488
:10186000010C013401440184010C0000000000005F
:101870000000000001003EFC4002400200000000A9
:1018800000000000FFFF0000000000000000400218
:1018900040023EFC0100000000000000000060006B
:1018A0008000800040004000200020000000000078
:1018B0000000000000000000000000000000000028
:1018C0000000000000000000000000000000000018
:1018D0000000000000000000000000000000000FF9
:1018E00080380FFE380F8038000000000000000034
:1018F00000000000000000000000010000060000E1
:101900000C00003800003100000600000C00003818
:10191000000030000000000000000000618000674F
:10192000F807F980006180006180006180006180BB
:101930000067F807F98000618000000000000000E7
:10194000000001C0E003E0F00630080418081FFFA3
:10195000FE040E080787F00381E00000000000008D
:1019600001F000060C00040408060C7001F9C00028
:101970000E00003BE000EC18070808040C180003F8
:10198000E00000000001E00007F003F818041C0864
:1019900004170807E1D003C0E00023B0003C0800B2
:1019A00020080000100000000000000100003100CD
:1019B000003200001C0000000000000000000000D9
:1019C0000000000000000000000000000000000017
:1019D0000000000000000000000000007F0001FF88
:1019E000C00780F00C001810000420000200000066
:1019F0000000002000021000040C00180780F00115
:101A0000FFC0007F00000000000000000000000098
:101A100000000000000000004200006600006600B8
:101A2000003C0000180003FFC0001800003C00004C
:101A30006600006600004200000000000800000888
:101A40000000080000080000080001FFC0000800B6
:101A50000008000008000008000008000000000066
:101A6000000100003100003200001C0000000000F6
:101A70000000000000000000000000000000000066
:101A80000000000008000008000008000008000036
:101A90000800000800000800000800000800000816
:101AA00000000000000000000000000038000038C6
:101AB00000003800000000000000000000000000EE
:101AC0000000000000000000000000000006000010
:101AD0001C000070000180000E0000380000C000F3
:101AE0000700001C000030000000000000000000A3
:101AF0007F8001FFE00380700600180400080400E6
:101B00000806001803807001FFE0007F80000000DD
:101B100000000000000001000801000801000803A7
:101B2000FFF807FFF80000080000080000080000A8
:101B30000000000000000001C03802C058040098F6
:101B4000040118040218040418061C1803F81801EC
:101B5000E0F800000000000000000001C0E003C049
:101B6000F004000804080804080806180803F4181C
:101B700001E7F00001E000000000000000000000AC
:101B80000300000D00001100006100008108030146
:101B90000807FFF80FFFF800010800010800000027
:101BA0000000000000E007FCD00608080610080648
:101BB0001008061008061838060FF00607C00000C7
:101BC00000000000000000003F8001FFE0038430BF
:101BD000020818041008041008041008071810035D
:101BE0000FF00007C000000000000000000003C06C
:101BF000000700000600000600F80607F8061800B7
:101C000006E00007000006000000000000000001E0
:101C1000E1E003F7F0063410041808041808040C77
:101C200008040C0806161803F3F001C1E0000000D8
:101C300000000000F80003FC30030638040208042A
:101C400002080402080404100308F001FFC0007F2A
:101C50000000000000000000000000000000000084
:101C6000000000007038007038007038000000007C
:101C70000000000000000000000000000000000064
:101C80000000000000000000301A00301C000000BE
:101C90000000000000000000000000000000000044
:101CA0000000000800001400002200004100008035
:101CB000800100400200200400100800080000001D
:101CC0000000000021000021000021000021000090
:101CD000210000210000210000210000210000213E
:101CE00000000000000000000000080008040010D0
:101CF000020020010040008080004100002200001E
:101D0000140000080000000000000003C00004C030
:101D100000040000080038080F38080838081000D0
:101D20000C300007E00003C00000000000000000CD
:101D30003F8000FFE0038070020F1006708804C02F
:101D400088048308047F8802C09003012000FE40BD
:101D50000000080000180001F8003E0801C200075A
:101D6000020007E20000FE00001FC80001F80000AA
:101D70003800000804000807FFF807FFF804080807
:101D800004080804080804080806180803F41801E1
:101D9000E7F00001E0000000000000003F8001FFCC
:101DA000E003807002001804000804000804000822
:101DB0000400100600200780C0000000040008078F
:101DC000FFF807FFF80400080400080400080400F6
:101DD0001802001003807001FFE0007F8000000007
:101DE00004000807FFF807FFF804080804080804BF
:101DF0000808040808043E0804000806001801004A
:101E00006000000004000807FFF807FFF804080856
:101E1000040800040800040800043E000600000650
:101E20000000018000000000000000003F8001FF72
:101E3000E003807006001804000804020804020889
:101E40000203F00783F0000200000200040008070C
:101E5000FFF807FFF8040808000800000800000861
:101E60000000080004080807FFF807FFF80400084E
:101E70000000000000000400080400080400080737
:101E8000FFF807FFF8040008040008040008000039
:101E90000000000000000000000600000700000134
:101EA00004000104000104000307FFFE07FFFC0417
:101EB000000004000004000004000807FFF807FF0A
:101EC000F8040C08001800003E0004C7800503C891
:101ED0000600F80400380400180000080400080791
:101EE000FFF807FFF80400080000080000080000E1
:101EF0000800000800000800001800006000000052
:101F000004000807FFF807800807FC00007FC000F6
:101F100003F80007C000780007800807FFF807FFF4
:101F2000F804000804000807FFF807000803C000D1
:101F300000E000003800001E000007000001C0049F
:101F400000F007FFF8040000000000007F8001FFA0
:101F5000E00380700600180400080400080600185A
:101F600003003001FFE0007F80000000040008074C
:101F7000FFF807FFF8040408040400040400040444
:101F800000040400060C0003F80001F0000000004B
:101F9000000000007F8001FFE003807006008804DD
:101FA00000880400C806003C03003E01FFE6007FF5
:101FB0008400000004000807FFF807FFF804080881
:101FC000040800040C00040F00040BC00610F0030A
:101FD000F03801E00800000800000001E0F803F01C
:101FE00030063010041808041808040C08040C0803
:101FF0000206180207F00781E000000001800006D9
:10200000000004000004000004000807FFF807FFB8
:10201000F80400080400000400000600000180002D
:1020200004000007FFE007FFF004001800000800AC
:10203000000800000800000800000804001007FF66
:10204000E004000004000006000007E00007FE00B6
:10205000041FE00001F80000380001E0043E000722
:10206000C00006000004000004000007E00007FFB5
:10207000C0041FF80007C007F80007FF80043FF8FE
:102080000007C004F800070000040000000000047E
:10209000000806001807C07805F1C8003E00001FC0
:1020A000800463E80780F8060018040008000000B8
:1020B00004000006000007800007E008047C080018
:1020C0001FF80007F800180804E0080700000600E1
:1020D000000400000000000100080600380400F8B9
:1020E0000403E8040F08047C0805F00807C008078B
:1020F0000018040060000000000000000000000064
:10210000000000000000003FFFFE2000022000024F
:102110002000022000022000020000000000000059
:10212000000008000007000000C0000038000006A2
:10213000000001C000003000000E0000010000009F
:102140000000000000002000022000022000022009
:1021500000022000023FFFFE00000000000000001F
:102160000000000000000000000000000008000067
:1021700010000030000020000030000010000008B7
:10218000000000000000000000000100000100004D
:102190000100000100000100000100000100000139
:1021A000000001000001000001000001000000002B
:1021B00000000000002000002000001000001000BF
:1021C000000000000000000000000000000000000F
:1021D0000000000000F00019F8001B1800220800A1
:1021E0002608002408002410003FF8001FF8000013
:1021F0000800001800000004000007FFF80FFFF0BF
:1022000000181800100800200800200800301800EE
:102210001FF0000FC00000000000000007C0001FFA
:10222000F0001830002008002008002008003C08BA
:10223000001C100000600000000000000000000012
:1022400007C0001FF00038180020080020080020F8
:102250000804101007FFF80FFFF000001000000046
:102260000000000000000007C0001FF00012300056
:102270002218002208002208003208001E10000E5A
:1022800020000000000000002000002008002008BE
:1022900001FFF803FFF806200804200804200807BF
:1022A000200003000000000000000000000E000EEF
:1022B0006E001FF30031B10020B10020B100319158
:1022C000001F13002E1E00200E003000000000042E
:1022D000000807FFF80FFFF800100800200000209A
:1022E00000002008003FF8001FF800000800000070
:1022F0000000000000000020080020080020080660
:102300003FF8063FF8000008000008000008000041
:1023100000000000000000000000000003000003B7
:10232000002001002001002003063FFE063FFC00C4
:10233000000000000000000000000004000807FF8B
:10234000F80FFFF8000188000300002FC00038F8E4
:1023500000203800200800000800000000000000F5
:10236000000004000804000804000807FFF80FFF3D
:10237000F80000080000080000080000000000004D
:10238000002008003FF8003FF8001008002000007F
:102390003FF8003FF8001008002000003FF8003F21
:1023A000F8000008000000002008003FF8003FF897
:1023B000001008001000002000002008003FF80076
:1023C0001FF80000080000000000000007C0000F18
:1023D000F000183000300800200800200800300805
:1023E000001830000FF00007C000000000000000DF
:1023F0002001003FFF003FFF0010110020090020D6
:1024000008002008003038001FF0000FC000000056
:102410000000000007C0001FF0003818002008006E
:102420002008002009001011001FFF003FFF0000DE
:1024300001000000002008002008002008003FF8EC
:10244000003FF800080800100800200800200000E5
:102450003000003000000000000000000000000C10
:1024600078001E1800330800230800210800218886
:102470000021980030F000386000000000000000EB
:10248000200000200000200000FFF003FFF80020E3
:1024900008002008002008000030000000000000B4
:1024A000000000002000003FF0007FF8000018004E
:1024B0000008000008002010003FF8007FF0000036
:1024C00010000000000000002000003000003C0070
:1024D000003F800023F0000078000070002380009F
:1024E0003C00003000002000002000003C00003FC5
:1024F000E00023F80000E0002700003E00003FE07D
:102500000021F80001E0003E000020000000000073
:102510002008002008003838003E680027800003AB
:10252000C8002CF8003838002018002008000000EF
:10253000000000002000003003003C01003F830049
:1025400023EC000070002380003C000020000020ED
:1025500000000000000000000000003808002038E3
:102560000020F80023E8002F88003E08003808000B
:1025700020180000700000000000000000000000B3
:10258000000000000000000008000014001FF7FC1D
:1025900030000620000200000000000000000000E3
:1025A0000000000000000000000000000000FFFF2D
:1025B000FF0000000000000000000000000000001C
:1025C0000000000000002000023000061FF7FC00A1
:1025D00014000008000000000000000000000000DF
:1025E0000000000000000018000060000040000033
:1025F000400000200000100000080000040000045B
:1026000000000C0000100000282600080000002038
:10261000A81900005001000894290008A8190020FA
:10262000A0070000E40C00084816FF010D15FD1579
:102630008D01C101E101F10101F9F5E54D1DBD017A
:102640004E1DEDF5F901015FF191FD057575033042
:10265000174575058DFD011119FDFD191141C1FDCC
:10266000FDC1410101FFFF7A0102116E030504065D
:102670000701940605035951790139134919413964
:1026800048911C3E3F03013583C7FE7C300BF0FCB4
:102690001E070303071EFCF06B06062A1BFCFE1632
:1026A0001918B48EFCF8C948280AE0F0F8DECFCF3C
:1026B000C3C1F03B300B0F3F78E0C0C0E0783F0F64
:1026C0002808C0C0FFFFC0C0C0801C73F7C6013B14
:1026D000E37B1889480A43800112FF100A030509A9
:1026E00011FF118905C312E012F069AC073D4428BF
:1026F000FF11AA44700B83013844829292740183C3
:102700001E7C44FF017D01990562FF9A0102818AC6
:10271000010B013669419949FA010101204BF80882
:10272000011135F818608035806018F82B202006DC
:10273000312BE0101EAB10E014613937043E88687D
:10274000186A7FA71A7FBE4C0618060A1146404039
:102750007F40401C1F204001AB201F141162603AD3
:10276000602F01441E40202020C0ED190729EA2ACD
:102770004005115A600E8918792959070149260C1C
:102780000A0A090C360F0808080F2C080F08151D37
:102790000809090E0719181C09090918190A5929E5
:1027A000590701605A8001013D20087F030C300C5D
:1027B000037F2538545458257C04047805223C4076
:1027C000407C17FFAAAAAA28080A2CFF681E2649DF
:1027D0004949321016020408107F3468FF1F1BF0AD
:1027E00010012AFF0552F01B0F04012AFF05320FCA
:1027F00018094040405F55555575041A5F0C191172
:10280000180C200F094989790909090F200F112F88
:10281000FE02424ACA4A032C4202FE99380C40503A
:102820004C4340404F50505C409E1BF888012AFFAB
:102830000552F81B1F08012A7F10149F80F03B806F
:1028400082016009E2A2928A868280801B4080AC6D
:1028500061172424A4FEA3221B22CC5A411508068A
:1028600001FF2A019E1604FF02020239BC5B900898
:1028700063120810100444827F01808040432C10B2
:102880002846818019281E84E43C2724011AE40C80
:1028900011140402011AFFBD19C4496415FE225A1D
:1028A000862BFE920129BF111DFF040807C51F20BA
:1028B000030C142241E1178040201806802D0718D0
:1028C00020409E1201100B20702826212020243841
:1028D000602301013B10123C3D9212120240211A6A
:1028E0003F948B103FC54BC080014BFC84080336DE
:1028F000C0C03CFF7F40014AFF075B40FF600138DA
:10290000034A7F700373FCF86CFFFE02018BFFFF2C
:102910000B0268036C1F1F04017BFFFF0B02741F77
:10292000038C7F3F07FFF8F8F0F0702001E60214F7
:10293000801AFF0109122C09132D01FF01C0EDFFC0
:10294000FFFE06011AFF01F915391603FF07020100
:10295000D10C12FFFFFF1409101509151601FF0114
:10296000C1EDFFFFFF18011914091015391601FFF9
:1029700001D204120201011AFF01011209122A01F7
:10298000FF01D71AFF0101FF01FD05FF1F1F0F0FF8
:0429900001E400005E
:04000005080000F5FA
:00000001FF
