:020000040800F2
:100000009824002049110008C1030008C303000818
:10001000C7030008CB030008CF030008000000005E
:10002000000000000000000000000000D3030008F2
:10003000D503000800000000D7030008D90300081A
:1000400063110008631100086311000863110008C0
:1000500063110008631100086311000863110008B0
:1000600063110008631100086311000863110008A0
:100070006311000863110008631100086311000890
:100080006311000863110008631100086311000880
:100090006311000863110008631100086311000870
:1000A0006311000863110008631100086311000860
:1000B0006311000863110008631100086311000850
:1000C0006311000863110008631100086311000840
:1000D00063110008BD1000086311000863110008D7
:1000E0006311000863110008631100086311000820
:1000F0006311000863110008631100086311000810
:1001000063110008631100086311000863110008FF
:1001100063110008631100086311000863110008EF
:1001200063110008631100086311000863110008DF
:1001300063110008631100086311000863110008CF
:1001400063110008631100086311000863110008BF
:1001500063110008631100086311000863110008AF
:10016000631100086311000863110008631100089F
:10017000631100086311000863110008631100088F
:10018000631100086311000800F002F800F05CF849
:100190000AA090E8000C82448344AAF10107DA45E2
:1001A00001D100F051F8AFF2090EBAE80F0013F0D8
:1001B000010F18BFFB1A43F0010318472C3600004B
:1001C0004C3600000A444FF0000C10F8013B13F0CD
:1001D000070408BF10F8014B1D1108BF10F8015BA0
:1001E000641E05D010F8016B641E01F8016BF9D193
:1001F00013F0080F1EBF10F8014BAD1C0C1B09D1EA
:100200006D1E58BF01F801CBFAD505E014F8016B5B
:1002100001F8016B6D1EF9D59142D6D370470000ED
:100220000023002400250026103A28BF78C1FBD8FF
:10023000520728BF30C148BF0B6070471FB501F09F
:10024000EDFE1FBD10B510BD01F0B5FE1146FFF764
:10025000F5FF00F009F801F0D3FE03B4FFF7F2FF59
:1002600003BC00F0CBFE000008B50024A82000F07D
:1002700043FE00F021FE00F056FD202400204749F7
:1002800008608AE04648052348220021009008467D
:1002900000F024FD4FF4FA7000F090FE00F044FAF4
:1002A0001023002211460C2000F030FC1023012204
:1002B00000211C2000F02AFC1023022200212C2007
:1002C00000F024FC102337A21946082000F0B8FBE8
:1002D00000F007FA4FF4FA7000F070FE00F024FA14
:1002E000102332A20021084600F0AAFB102331A2FD
:1002F0001946002000F0A4FB1023224600213020E4
:1003000000F019FB601CC4B27E2C00DD20241020FC
:100310000323224601460090302000F0BDFB00F090
:10032000E0F94FF4FA7000F049FE00F0FDF91023F7
:1003300000221146104600F0E9FB1823002210218C
:10034000104600F0E3FB202300221146182000F0A5
:10035000DDFB00F0C6F94FF4FA7000F02FFE00F05C
:10036000E3F90C2315A20021084600F069FB1023D5
:1003700012A20C21002000F063FB18230FA2002121
:100380001C2000F05DFB00F0ACF94FF4FA7000F0B7
:1003900015FE04210B2000F035FC73E7A4824242D5
:1003A00000000020323031392F30320041534349B0
:1003B000493A0000434F4445203A0000414243007F
:1003C000704700BFFEE700BFFEE700BFFEE700BFCB
:1003D000FEE7704770477047704700000CB500207B
:1003E000019000907648006840F4803074490860BD
:1003F00000BF7348006800F4003000900198401C72
:100400000190009818B90198B0F5A04FF1D16C484F
:10041000006800F4003010B10120009001E00020DD
:1004200000900098012846D165484030006840F0AF
:1004300080506349403108606248006840F44040A1
:10044000604908605E48083000685D49083108600E
:100450000846006840F4004008600846006840F420
:10046000A05008605848091F0860081F006840F045
:100470008070091F086000BF5148006800F00070DC
:100480000028F9D040F20570504908604C48083007
:10049000006820F003004A490831086008460068F7
:1004A00040F00200086000BF45480830006800F0D6
:1004B0000C000828F8D10CBD10B54548006840F480
:1004C0007000434908603E48006840F001003C4924
:1004D000086000203A4908310860394800683D4901
:1004E0000840374908603C48091D0860081F00683B
:1004F00020F48020091F0860002031490C31086079
:10050000FFF76CFF4FF0006031498039086010BD83
:1005100070B500200022022300240221284D083556
:100520002D6805F00C0020B1042806D0082834D12D
:1005300007E02A4D2A4E356033E02A4D284E3560BB
:100540002FE01F4D2D1D2D68C5F380541C4D2D1D12
:100550002D6805F03F0154B1224DB5FBF1F5184E61
:10056000361D3668C6F3881605FB06F209E01B4DFA
:10057000B5FBF1F5124E361D3668C6F3881605FB3D
:1005800006F20F4D2D1D2D68C5F301456D1C6B0046
:10059000B2FBF3F5124E356003E0104D104E35609E
:1005A00000BF00BF064D08352D68C5F303150E4E7C
:1005B000705D0B4D2D68C540094E356070BD000063
:1005C000003802400070004008544007003C0240E0
:1005D00088ED00E0FFFFF6FE103000240024F40058
:1005E0006805002000127A006C05002070B50446F2
:1005F0000E462EB14FF40041FA4800F037FF04E0F8
:100600004FF40041F74800F033FF0221F54800F0B5
:100610002FFF002519E04FF48051F34800F028FF28
:1006200004F0800020B12021EE4800F01FFF03E01D
:100630002021EC4800F01CFF4FF48051EA4800F004
:1006400015FF6006040E681CC5B2082DE3DB02210D
:10065000E44800F00BFF4FF40041E24800F006FFD1
:1006600070BD10B504461CB90021A620FFF7BEFFDF
:10067000012C03D10021A720FFF7B8FF10BD10B552
:1006800004463CB90021C820FFF7B0FF0021A1209B
:10069000FFF7ACFF012C07D10021C020FFF7A6FF18
:1006A0000021A020FFF7A2FF10BD10B500218D2072
:1006B000FFF79CFF00211420FFF798FF0021AF20D7
:1006C000FFF794FF10BD10B500218D20FFF78EFFBE
:1006D00000211020FFF78AFF0021AF20FFF786FFDF
:1006E00010BD70B500241CE004F1B001C8B20021B7
:1006F000FFF77CFF00210846FFF778FF002110205C
:10070000FFF774FF002508E0B84901EBC501085D5B
:100710000121FFF76BFF681CC5B2642DF4DB601C80
:10072000C4B2052CE0DB70BD70B500240CE00025E0
:1007300006E00020AD4901EBC5010855681CC5B2B3
:10074000642DF6DB601CC4B2052CF0DBFFF7C9FF9B
:1007500070BD70B500F11C02D0B20A46CE1701EB95
:100760005676C6F3C703CE1701EB5676F610A1EB0B
:10077000C606F4B20122A240D5B29C4A02EBC002E6
:10078000D25C2A43994E06EBC006F25470BD70B598
:1007900000F11C03D8B20B46CE1701EB5676C6F318
:1007A000C702CE1701EB5676F610A1EBC606F4B2DF
:1007B0000123A340DDB28D4B03EBC0039B5CDB4305
:1007C0008A4E06EBC006B354884B03EBC0039B5C18
:1007D0002B43864E06EBC006B354844B03EBC00399
:1007E0009B5CDB43814E06EBC006B35470BD2DE924
:1007F000F84F05460E4617469846002D0ADB802F17
:1008000008DC002E06DBB8F1400F03DCBD4201DC42
:10081000464501DDBDE8F88FBD420DD1002406E05C
:100820003019C1B22846FFF794FF601CC4B2A8EB90
:100830000600A042F4DC30E046450CD1002406E07E
:100840002919C8B23146FFF784FF601CC4B2781B77
:10085000A042F5DC21E0A8EB060000F0FF0A781BBF
:1008600000F0FF0B0AEB8A00400090FBFBF000F069
:10087000FF0900240EE004FB09F00A2190FBF1F0CF
:100880003044C0B229190090C8B20099FFF761FF47
:10089000601CC4B2781BA042EDDC00BFBAE72DE9B2
:1008A000F04306460F469046002544463BE03A1B7F
:1008B000D1B27219D0B2FFF74CFF3A1BD1B2721B02
:1008C000D0B2FFF746FF3A19D1B2721BD0B2FFF790
:1008D00040FF3A19D1B27219D0B2FFF73AFF7A1934
:1008E000D1B23219D0B2FFF734FF7A1BD1B232192C
:1008F000D0B2FFF72EFF7A1BD1B2321BD0B2FFF776
:1009000028FF7A19D1B2321BD0B2FFF722FF6D1C3B
:1009100005FB05F004FB040008FB1809B9F1000F02
:1009200001DD641E6D1E6000604308FB08F1884213
:10093000BDDABDE8F0832DE9FF4F81B080460E4659
:100940001C4600962046E31704EB5373DB10214648
:100950004FEAE47C04EB5C7C4FEAEC0CA4EBCC0C9F
:10096000BCF1000F02D04FF0010C01E04FF0000C81
:100970006344224604EBD27C4FEA6C0C03FB0CF37D
:1009800003F0FF0B03982038C7B2002554E00C2C6D
:1009900007D107EB4700164901EB800010F805A0CE
:1009A00014E0102C05D1134800EB071010F805A037
:1009B0000CE0182C07D107EBC7000F4901EB8000B2
:1009C00010F805A002E005B0BDE8F08F4FF0000977
:1009D0002CE00AF0800088B131464046FFF7B9FEAE
:1009E00010E00000000C024000180240D019002066
:1009F000262000089A2400088A2A0008314640462A
:100A0000FFF7C5FE4FEA4A604FEA106A701CC6B293
:100A10000098301AA04205D1009E08F1010000F0B4
:100A2000FF0806E009F1010000F0FF09B9F1080F25
:100A3000CFDB00BF681CC5B25D45A8DB00BFC2E7C5
:100A4000F0B506460F4614461D4613E022782B46A5
:100A500039463046FFF76FFF284605EBD07106EBAD
:100A60006101CEB2C5F18000B04202DA0026B81CA6
:100A7000C7B2641C2078202802DB20787E28E5DDC0
:100A8000F0BD10B50246012000E050430B1EA1F15D
:100A90000104E1B2F9D110BD2DE9F04F06468A46B6
:100AA00091461F46099C00252CE0781B401EC1B2D0
:100AB0000A20FFF7E6FFB9FBF0F00A21B0FBF1F2E4
:100AC00001FB1208B8F1000F0CD1A34604EBDB7157
:100AD000491001FB0561C8B2234630225146FFF799
:100AE0002AFF0DE0A34604EBDB71491001FB056111
:100AF000C8B208F13001CAB223465146FFF71BFFC6
:100B0000681CC5B2BD42D0DBBDE8F08F2DE9FF4FB8
:100B10000746884691461C464FF0000B0297CDF8D9
:100B200004802046E11704EB5171C1F3C701009125
:100B300060E009FB04F0C11700EB51710BEBE10120
:100B4000CEB20BF1010000F0FF0B002550E0102C9D
:100B500005D1D14800EB0610405D03901BE0182C36
:100B600007D106EBC600CD4901EBC000405D039004
:100B700011E0202C05D1CA4800EBC610405D03905F
:100B800009E0402C05D1C74800EB4620405D0390AA
:100B900001E0BDE8FF8F4FF0000A17E0039800F076
:100BA000010020B141463846FFF7D3FD03E041463E
:100BB0003846FFF7ECFD03984010039008F1010060
:100BC00000F0FF080AF1010000F0FF0ABAF1080F77
:100BD000E4DB781CC7B20298381AA04204D1029F05
:100BE00001980830C0B20190DDF80480681CC5B2DD
:100BF000A542ACDB0098411EC9B20091002898D1F3
:100C000000BFC6E780468946002600274CE03FB972
:100C1000102332460D216420FFF778FF701CC6B206
:100C2000464522D14FF0000A1AE0002410E00025CA
:100C30000AE09D4800EBC400415D601E9A4A02EB49
:100C4000C0004155681CC5B2082DF2DB601CC4B25F
:100C5000902CECDBFFF745FD0AF1010000F0FF0AE4
:100C60004FEA09105045E0DC0026781CC7B2102F6F
:100C700000D10027002413E000250DE08A4800EB96
:100C8000C400415D601E884A02EBC00041550A2045
:100C900000F04CF9681CC5B2082DEFDB601CC4B233
:100CA000902CE9DBFFF71DFDB1E770B504460D465A
:100CB00005F1B001C8B20021FFF798FC04F11C0156
:100CC000C1F3031141F010000021FFF78FFC211F39
:100CD00001F00F000021FFF789FC70BD2DE9F05FE6
:100CE00005460E4617469846DDF828B04FF0000935
:100CF000344614E021462846FFF7D7FFAA460AE00B
:100D00001BF809000121FFF771FC09F101090AF143
:100D1000010000F0FF0ABA45F2DB601CC4B2444592
:100D2000E8DBBDE8F09F1CB50121582000F0C0FDB4
:100D300048F22200009001208DF8040000208DF878
:100D4000060003208DF8050001208DF80700694694
:100D5000564800F00FFB4FF4A060009001208DF882
:100D6000040000208DF8060003208DF80500012006
:100D70008DF8070069464E4800F0FCFA4FF48050A9
:100D8000009001208DF8040000208DF8060003205B
:100D90008DF8050001208DF807006946454800F0F0
:100DA000E9FAC82000F00AF90021AE20FFF71EFC86
:100DB0000021D520FFF71AFC0021F020FFF716FCD8
:100DC0000021A820FFF712FC00212720FFF70EFCCE
:100DD0000021D320FFF70AFC00210846FFF706FC9C
:100DE00000214020FFF702FC00218D20FFF7FEFBD1
:100DF00000211420FFF7FAFB00212020FFF7F6FB6B
:100E000000210220FFF7F2FB0021A120FFF7EEFBFB
:100E10000021C820FFF7EAFB0021DA20FFF7E6FBFC
:100E200000211220FFF7E2FB0021AD20FFF7DEFBDF
:100E300000213020FFF7DAFB00218120FFF7D6FBED
:100E40000021FF20FFF7D2FB0021D920FFF7CEFBC6
:100E500000212220FFF7CAFB0021DB20FFF7C6FBA1
:100E600000212020FFF7C2FB0021A420FFF7BEFBDA
:100E70000021A620FFF7BAFB00210C20FFF7B6FBEC
:100E800000211120FFF7B2FB0021AF20FFF7AEFBDE
:100E9000FFF74AFC1CBD00007C050020DC0600209A
:100EA000B4070020B4090020D0190020000C024033
:100EB00000100240001802401CB50121202000F063
:100EC000F7FC4FF4C060009001208DF80400002072
:100ED0008DF8060003208DF8050001208DF807002D
:100EE0006946044800F046FA4FF4C061014800F03A
:100EF000BDFA1CBD0014024010B504466FF004009A
:100F000000F094F9E11704EB5171C1F3C701394ABC
:100F100011701046007800EB4001C1EBC0104FF695
:100F2000FF7101EAC0003449088010BD0146314A12
:100F300012784A434FF0E0235A6100229A611A4620
:100F4000126942F001021A6100BF4FF0E0221069FD
:100F500000F001021AB100F48032002AF5D04FF0FF
:100F6000E022126922F001024FF0E0231A61002210
:100F70009A6170470146204A12884A434FF0E023A5
:100F80005A6100229A611A46126942F001021A61FE
:100F900000BF4FF0E022106900F001021AB100F426
:100FA0008032002AF5D04FF0E022126922F00102CF
:100FB0004FF0E0231A6100229A61704770B5044631
:100FC0004FF4077094FBF0F0C6B24FF4077094FB37
:100FD000F0F100FB114085B205E04FF40770FFF718
:100FE000C9FF701EC6B2002EF7D115B12846FFF713
:100FF000C1FF70BDB4190020B6190020014600BF22
:10100000704700BF4C4A128802F04002002AF9D013
:10101000C2B2494B9A80704710B588B0044601218E
:10102000084600F045FC0121102000F09BFC07223F
:101030000921424800F029FA07220A213F4800F01E
:1010400024FA4FF4C060069002208DF81C008DF841
:101050001D0000208DF81E0001208DF81F0006A93C
:10106000364800F087F902940020ADF80C00ADF886
:101070000E00ADF81000ADF814000C20ADF8120011
:1010800002A92D4800F0CFFD01212B4800F053FEAE
:10109000012240F22551284800F003FF25208DF859
:1010A000040003208DF805008DF8060001208DF85E
:1010B000070001A800F06DF808B010BD10B540F2AF
:1010C00025511D4800F028FF10B31B4800F062FEB8
:1010D000C4B21B48008800F40040C8B91848008812
:1010E00000F4804060B10A2C03D00020144908802D
:1010F00020E01348008840F400401149088019E0BE
:101100000D2C06D10E48008840F480400C49088020
:1011100010E00B480088C0F30D000A490C54084841
:101120000088401C0649088008460088C72801DD61
:101130000020088010BD00000010014000000240A7
:10114000BC190020701D002009488047094800474D
:10115000FEE7FEE7FEE7FEE7FEE7FEE7FEE7FEE767
:10116000FEE7FEE704480549054A064B70470000C4
:10117000B904000889010008981E00209824002066
:10118000982000209820002032490143324A116003
:10119000704770B5002100230F22C4781CB32E4C79
:1011A000246804F4E064C4F5E064C4F30721C1F1E9
:1011B0000404E3B20A4144789C40E1B284781440CC
:1011C00021430C07210E254C05786155047804F065
:1011D0001F050124AC4005786D11AD0005F1E02537
:1011E000C5F8004109E0047804F01F050124AC4073
:1011F0001B4D0678761145F8264070BD194A0A4005
:101200000243154B1B1F1A60704739B1124A121D59
:1012100012680243104B1B1D1A6006E00E4A121D95
:10122000126882430C4B1B1D1A607047042808D1BA
:101230004FF0E021096941F004014FF0E022116113
:1012400007E04FF0E021096921F004014FF0E022AE
:10125000116170470000FA050CED00E000E400E0C9
:1012600080E100E080FFFF1F10B5044698488442EB
:1012700008D10121084600F086FB0021012000F082
:1012800082FB76E09348844208D10121022000F0DD
:101290007AFB0021022000F076FB6AE08E4884424F
:1012A00008D10121042000F06EFB0021042000F091
:1012B0006AFB5EE08948844208D10121082000F0E1
:1012C00062FB0021082000F05EFB52E0844884426B
:1012D00008D10121102000F056FB0021102000F061
:1012E00052FB46E07F48844208D10121202000F0D3
:1012F0004AFB0021202000F046FB3AE07A48844275
:1013000008D10121402000F03EFB0021402000F0E8
:101310003AFB2EE07548844208D10121802000F07C
:1013200032FB0021802000F02EFB22E07048844236
:1013300008D10121801500F026FB0021A01500F046
:1013400022FB16E06B48844208D10121401500F0D1
:101350001AFB0021601500F016FB0AE06648844283
:1013600007D10121001500F00EFB0021201500F02F
:101370000AFB10BDF0B50A4600210023002400BF7F
:101380003DE0012505FA01F3156805EA03049C42D6
:1013900034D105684F000326BE40B543056015797A
:1013A0004E00B5400668354305601579012D02D021
:1013B0001579022D16D185684F000326BE40B5432E
:1013C000856055794E00B54086683543856045682F
:1013D00001268E40B5434560456896798E40B6B289
:1013E00035434560C5684F000326BE40B543C56020
:1013F000D5794E00B540C6683543C560491C1029F3
:10140000BFD3F0BD4FF6FF71016000210171417142
:101410008171C171704708B54FF480320092009A13
:101420000A430092009AC261C161009AC261C26916
:101430000092C269009208BD0246002013690B4069
:101440000BB1012000E0002070470146086980B21E
:1014500070470246002053690B400BB1012000E0A9
:10146000002070470146486980B270470183704789
:10147000418370470AB1018300E0418370474161B5
:10148000704742694A4042617047F0B5002300242A
:101490004D07ED0E02FA05F3CE1000F1200555F8C8
:1014A00026504E07F70E0F26BE40B543CF1000F171
:1014B000200646F82750CE1000F1200555F826509A
:1014C00045EA0304CE1000F1200545F82640F0BDA2
:1014D000000002400004024000080240000C0240EC
:1014E000001002400014024000180240001C02409C
:1014F000002002400024024000280240F948006811
:1015000040F00100F74908600020F6490831086002
:10151000F4480068F4490840F2490860F348091D9E
:101520000860F348EF4984310860F0481038091D1D
:101530000860EC48006820F48020EA490860002038
:10154000E8490C310860E7498C3108607047002198
:10155000E44A921C117011460870704710B501469C
:101560000022002300204A11012A02D1DD4C236809
:1015700008E0022A03D1DB4C7034236802E0D94C26
:101580007434236801F01F02012494401C400CB104
:10159000012000E0002010BD38B50020009000249C
:1015A000002500BF3120FFF7D9FF05460098401CF9
:1015B00000900098B0F5A04F01D0002DF2D031205E
:1015C000FFF7CCFF08B1012400E00024204638BD1D
:1015D00001460020C34A106820F0F80040EAC1002C
:1015E00010607047C349086070470021BD4A7032DF
:1015F00011701170012802D004280AD104E00121E1
:10160000B84A7032117005E00521B64A7032117087
:1016100000E000BF00BF7047B7490860704770B571
:10162000049C41EA82150126C6EB530645EA0645AD
:10163000054345EA0465AB4E361D356070BDAD49C6
:1016400008667047820142EA0172A64B84331A6031
:101650007047A8498866704710B5830143EA016363
:1016600043EA02739F4C8834236010BDA149086788
:101670007047A049C864704702460020994B083360
:10168000186820F0EC6042EA01031843954B0833D8
:101690001860704702460020924B0833186820F00B
:1016A000784042EA010318438E4B083318607047B4
:1016B000014600208B4A0832106820F003000843DE
:1016C0001060704787480830006800F00C007047D1
:1016D00001460020834A0832106820F0F0000843D9
:1016E00010607047014600207E4A0832106820F4DE
:1016F000E05008431060704701460020794A0832E4
:10170000106820F4604040EAC10010607047F0B5F6
:10171000002100220024022500260223714F0837F1
:101720003F6807F00C0121B1042905D0082937D101
:1017300005E0724F076036E0714F076033E0694F94
:101740003F1D3F68C7F38056664F3F1D3F6807F057
:101750003F036EB16A4FB7FBF3F7DFF888C10CF1B6
:10176000040CDCF800C0CCF3881C07FB0CF40CE084
:10177000624FB7FBF3F7DFF86CC10CF1040CDCF837
:1017800000C0CCF3881C07FB0CF4564F3F1D3F688C
:10179000C7F301477F1C7D00B4FBF5F7076002E04B
:1017A000564F076000BF00BF4E4F08373F6807F035
:1017B000F0010909534F7A5C0768D7404760494FE9
:1017C00008373F6807F4E051890A4E4F7A5C476852
:1017D000D7408760434F08373F6807F46041490BA3
:1017E000484F7A5C4768D740C760F0BD002100F4DD
:1017F0004072B2F5407F0AD13A4A0832116821F4AA
:10180000F811414A02401143364A08321160354A04
:1018100070321268C0F30B031A43324B70331A60F4
:10182000704735494439086070473349403908608A
:10183000704736490860704701460020294A8C32BB
:10184000106820F01F004A1E1043264A8C32106098
:10185000704701460020234A8C32106820F4F8506B
:101860004A1E40EA02201F4A8C321060704701462F
:1018700000201C4A8C32106820F44010084310608D
:10188000704701460020174A8C32106820F440004F
:1018900008431060704701460020124A8C321068DD
:1018A00020F44030084310607047194908607047C1
:1018B00039B10C4A3032126802430A4B30331A6095
:1018C00006E0084A303212688243064B30331A6011
:1018D0007047F9B1034A343212680243014B343382
:1018E0001A601CE000380240FFFFF6EA10300024C6
:1018F0000030002000004742800E47420024F400E0
:1019000000127A00BE190020FFFCFF0F5C01474265
:10191000E01147428F4A126882438E4B1A6070472B
:1019200039B18C4A121D126802438A4B1B1D1A6082
:1019300006E0884A121D12688243864B1B1D1A60FE
:10194000704739B1834A0C3212680243814B0C3321
:101950001A6006E07F4A0C32126882437D4B0C33DA
:101960001A60704739B17B4A103212680243794BD2
:1019700010331A6006E0774A103212688243754BC2
:1019800010331A60704739B1724A243A1268024320
:10199000704B243B1A6006E06E4A243A1268824378
:1019A0006C4B243B1A60704739B16A4A203A12687E
:1019B0000243684B203B1A6006E0664A203A1268F0
:1019C0008243644B203B1A60704739B1614A1C3A2C
:1019D000126802435F4B1C3B1A6006E05D4A1C3AEA
:1019E000126882435B4B1C3B1A60704739B1594AFD
:1019F000143A12680243574B143B1A6006E0554AEA
:101A0000143A12688243534B143B1A60704739B141
:101A1000504A103A126802434E4B103B1A6006E0DF
:101A20004C4A103A126882434A4B103B1A60704786
:101A300039B1484A1C3212680243464B1C331A60C3
:101A400006E0444A1C3212688243424B1C331A603F
:101A5000704739B13F4A2032126802433D4B203370
:101A60001A6006E03B4A203212688243394B203329
:101A70001A60704739B1374A243212680243354B35
:101A800024331A6006E0334A243212688243314B11
:101A900024331A60704739B12E4A2C32126802433F
:101AA0002C4B2C331A6006E02A4A2C3212688243EF
:101AB000284B2C331A60704739B1264A30321268ED
:101AC0000243244B30331A6006E0224A3032126857
:101AD0008243204B30331A607047012808D11D49DA
:101AE0003C31096841F008011A4A3C32116007E0B4
:101AF00018493C31096821F00801164A3C3211604E
:101B0000704739B1134A273A12780243114B273BE9
:101B10001A7006E00F4A273A127882430D4B273B92
:101B20001A7070470B484030006840F080700949D7
:101B300040310860704701460020064A283A126882
:101B40000A400AB1012000E000207047014926390F
:101B5000087070473438024010B50446FA48844291
:101B600008D101211020FFF752FF00211020FFF7BC
:101B70004EFF57E0F548844209D101214804FFF7A0
:101B800035FF00214FF40030FFF730FF4AE0F04806
:101B9000844209D101218804FFF728FF00214FF476
:101BA0008020FFF723FF3DE0EA48844209D101216C
:101BB000C804FFF71BFF00214FF40020FFF716FFBA
:101BC00030E0E548844209D101210805FFF70EFF06
:101BD00000214FF48010FFF709FF23E0DF48844223
:101BE00008D101212020FFF712FF00212020FFF75C
:101BF0000EFF17E0DA48844209D101218807FFF778
:101C0000F5FE00214FF08040FFF7F0FE0AE0D548D6
:101C1000844207D101214005FFF7E8FE002160055D
:101C2000FFF7E4FE10BD2DE9FF4705460E460024F0
:101C3000A14600BFA046B08900B100BF2C8A24F4A1
:101C40004054F08804432C82AC8941F20C608443F8
:101C5000B08831890843718908430443AC81AC8A58
:101C600024F44074B0890443AC826846FFF74FFD0A
:101C7000B548854202D0B948854202D1DDF80C90C2
:101C800001E0DDF80890A88900F4004040B109EBBC
:101C9000C90000EB091031684900B0FBF1F707E01B
:101CA00009EBC90000EB091031688900B0FBF1F7BE
:101CB0006420B7FBF0F004012009642101FB1078D7
:101CC000A88900F4004040B1322000EBC800B0FB0E
:101CD000F1F000F00700044308E0322000EB0810A8
:101CE0006421B0FBF1F000F00F0004432C81BDE84B
:101CF000FF874FF41651016000218180C18001816E
:101D00000C21418100218181704710B502460020DD
:101D1000108A20F470600B884C8823438C882343FE
:101D2000CC8823431843108210BD002101804180DC
:101D30008180C180704721B1828942F40052828142
:101D400004E082894DF6FF731A4082817047028B4E
:101D500002F47F420283028B0A430283704721B15F
:101D6000828942F40042828103E08289C2F30E023A
:101D70008281704721B1828A42F40062828204E04B
:101D8000828A4FF2FF731A4082827047C1F30802C1
:101D90008280704701468888C0F308007047028A35
:101DA0004FF6F0731A400282028A0A430282704799
:101DB00021B1828942F00202828104E082894FF6D9
:101DC000FD731A408281704782894FF2FF731A4077
:101DD000828182890A4382817047028A4FF6DF73CB
:101DE0001A400282028A0A430282704721B1028AA3
:101DF00042F48042028204E0028A4BF6FF731A40EA
:101E000002827047818941F001018181704721B1CF
:101E1000828A42F00802828204E0828A4FF6F773D7
:101E20001A4082827047028BD2B20283028B42EA4E
:101E300001220283704721B1828A42F0200282820D
:101E400004E0828A4FF6DF731A408282704721B124
:101E5000828A42F01002828204E0828A4FF6EF7397
:101E60001A4082827047828A4FF6FB731A40828240
:101E7000828A0A438282704721B1828A42F002023A
:101E8000828204E0828A4FF6FD731A408282704794
:101E90001AB1838A0B43838202E0838A8B43838255
:101EA0007047F0B50346002400260025002040F6C8
:101EB0006A17B94200D100BF1846C1F3421401F0BD
:101EC0001F06012707FA06F5012C01D10C3004E0AA
:101ED000022C01D1103000E014301AB107682F43F2
:101EE000076002E00768AF430760F0BD02460020CC
:101EF000B1F5007F00D100BF13880B400BB101206A
:101F000000E00020704701F40072B2F5007F00D1BC
:101F100000BFCA430280704770B502460024002308
:101F20000025002040F66A16B14200D100BFC1F37F
:101F3000421501F01F03012606FA03F3012D13D108
:101F40009689334017E00000001001400044004033
:101F500000480040004C0040005000400014014088
:101F600000780040007C0040022D02D1168A3340E8
:101F700001E0968A33400C12012606FA04F4168812
:101F8000344013B10CB1012000E0002070BD10B549
:101F90000022002340F66A14A14200D100BF0A12B9
:101FA00001249440A3B2DC43048010BD7047704705
:101FB000704770477047754600F02CF8AE46050034
:101FC0006946534620F00700854618B020B5FFF754
:101FD000C9F8BDE820404FF000064FF000074FF071
:101FE00000084FF0000B21F00701AC46ACE8C00937
:101FF000ACE8C009ACE8C009ACE8C0098D46704740
:1020000010B50446AFF300802046BDE81040FEF74F
:1020100024B9000000487047381E00204FF040707F
:10202000E1EE100A70470000000000000000000010
:102030000000000000003F40000000000000000021
:102040003000400030004000000009000BC03D009F
:102050000BC03D00090018C024407FE022403180C1
:102060000000180024C01B000D8032400180038056
:102070001C4027401C80074000401000600000000A
:102080000000000000000000000000001F80204051
:1020900040200000402020401F8000000000090078
:1020A00006001F80060009000000040004003F80B5
:1020B00004000400000000100060000000000000A8
:1020C00000000400040004000400040000000000FC
:1020D00000400000000000000000002001C00600D9
:1020E0003800400000001F802040204020401F801A
:1020F0000000000010403FC000400000000018C079
:1021000021402240244018400000108020402440FC
:1021100024401B80000002000D0011003FC0014060
:1021200000003C80244024402440238000001F8085
:10213000244024403440038000003000200027C0A9
:102140003800200000001B802440244024401B80D5
:1021500000001C0022C0224022401F80000000001E
:1021600000000840000000000000000000000460C3
:10217000000000000000000004000A0011002080A0
:1021800040400900090009000900090000000000A2
:102190004040208011000A00040018002000234065
:1021A0002400180000001F802040274029401F40C5
:1021B0000000004007C039000F0001C0004020406F
:1021C0003FC0244024401B8000001F80204020404E
:1021D00020403080000020403FC0204020401F8031
:1021E000000020403FC024402E4030C0000020406E
:1021F0003FC024402E00300000000F00108020401F
:1022000022403380020020403FC0040004003FC051
:102210002040204020403FC020402040000000607F
:10222000202020203FC02000200020403FC024402C
:102230000B0030C0204020403FC020400040004004
:1022400000C03FC03C0003C03C003FC00000204035
:102250003FC00C4023003FC020001F802040204092
:1022600020401F80000020403FC024402400180070
:1022700000001F802140214020E01FA000002040DE
:102280003FC02440260019C0004018C0244024400C
:10229000224031800000300020403FC0204030000C
:1022A000000020003F80004000403F8020002000D0
:1022B0003E0001C0070038002000380007C03C0085
:1022C00007C038000000204039C0060039C0204057
:1022D00000002000384007C0384020000000304097
:1022E00021C02640384020C00000000000007FE0F0
:1022F000402040200000000070000C0003800040DF
:1023000000000000402040207FE0000000000000AE
:10231000200040002000000000000010001000100D
:10232000001000100010000000004000000000003D
:102330000000000002800540054003C0004020006E
:102340003FC00440044003800000000003800440BC
:1023500004400640000000000380044024403FC0C9
:1023600000400000038005400540034000000000DD
:1023700004401FC0244024402000000002E005501B
:1023800005500650042020403FC00440040003C014
:1023900000400000044027C0004000000000001082
:1023A0000010041027E00000000020403FC0014062
:1023B000070004C00440204020403FC000400040CF
:1023C000000007C0040007C0040003C00000044070
:1023D00007C00440040003C0004000000380044024
:1023E000044003800000041007F004500440038000
:1023F0000000000003800440045007F00010044077
:1024000007C0024004000400000000000640054030
:10241000054004C00000000004001F80044000408C
:102420000000040007800040044007C00040040092
:10243000070004C0018006000400060001C0070078
:1024400001C006000000044006C0010006C00440B0
:1024500000000410071004E00180060004000000E2
:10246000044005C0064004400000000000000400D5
:102470007BE040200000000000000000FFF00000B2
:102480000000000040207BE004000000000040004D
:1024900080004000200020004000000000000000FC
:1024A000000000000000000000000000000000002C
:1024B0001FCC000C000000000000000008003000ED
:1024C00060000800300060000000022003FC1E20B5
:1024D000022003FC1E200220000000000E18110440
:1024E0003FFF10840C78000000000F0010840F38AC
:1024F00000C0077818840078000000780F8410C4AA
:1025000011240E9800E400840008080068007000A0
:1025100000000000000000000000000000000000BB
:1025200007E01818200440020000000040022004C8
:10253000181807E00000000000000240024001807F
:102540000FF0018002400240000000800080008007
:102550000FF800800080008000000001000D000ED8
:10256000000000000000000000000000008000806B
:10257000008000800080008000800000000C000CC3
:10258000000000000000000000000000000600182D
:1025900000600180060018002000000007F0080815
:1025A00010041004080807F00000000008040804E4
:1025B0001FFC000400040000000000000E0C1014BA
:1025C0001024104411840E0C000000000C1810049C
:1025D0001104110412880C700000000000E00320B8
:1025E000042408241FFC0024000000001F9810840D
:1025F00011041104108810700000000007F0088812
:102600001104110418880070000000001C00100064
:1026100010FC13001C001000000000000E381144D4
:102620001084108411440E38000000000700088C4C
:1026300010441044088807F000000000000000006B
:10264000030C030C0000000000000000000000016B
:1026500001060000000000000000000000800140B2
:1026600002200410080810040000022002200220AA
:1026700002200220022002200000000010040808AE
:102680000410022001400080000000000E00120033
:10269000100C106C10800F00000003E00C1813E405
:1026A000142417C4082807D000000004003C03C409
:1026B0001C40074000E4001C000410041FFC11042F
:1026C000110411040E880070000003E00C181004BF
:1026D0001004100410081C10000010041FFC10044B
:1026E00010041004080807F0000010041FFC110477
:1026F000110417C410040818000010041FFC110472
:10270000110017C010000800000003E00C181004AE
:10271000100410441C780040000010041FFC1084BA
:102720000080008010841FFC1004000010041004BE
:102730001FFC100410040000000000030001100141
:1027400010011FFE10001000000010041FFC1104F7
:1027500003801464181C1004000010041FFC1004F3
:10276000000400040004000C000010041FFC1F0003
:1027700000FC1F001FFC1004000010041FFC0C04D0
:10278000030000E010181FFC100007F008081004F8
:1027900010041004080807F0000010041FFC108447
:1027A0001080108010800F00000007F0081810241F
:1027B0001024101C080A07F2000010041FFC11046A
:1027C000110011C011300E0C000400000E1C110489
:1027D0001084108410441C380000180010001004ED
:1027E0001FFC100410001800000010001FF8100457
:1027F0000004000410041FF8100010001E0011E077
:10280000001C007013801C0010001FC0103C00E072
:102810001F0000E0103C1FC000001004180C16340C
:1028200001C001C01634180C100410001C00130461
:1028300000FC13041C00100000000804101C1064AD
:10284000108413041C041018000000000000000095
:102850007FFE4002400240020000000030000C00F9
:1028600003800060001C00030000000040024002E2
:1028700040027FFE00000000000000000000200079
:102880004000400040002000000000010001000165
:1028900000010001000100010001000040004000B3
:1028A000200000000000000000000000009801244B
:1028B00001440144014400FC000410001FFC008896
:1028C000010401040088007000000000007000880E
:1028D0000104010401040088000000000070008869
:1028E0000104010411081FFC0004000000F8014469
:1028F00001440144014400C8000000000104010437
:102900000FFC1104110411001800000000D6012969
:102910000129012901C90106000010041FFC0084DF
:1029200001000100010400FC00040000010419047E
:1029300019FC000400040000000000000003000176
:102940000101190119FE0000000010041FFC002401
:10295000004001B4010C0104000000001004100448
:102960001FFC0004000400000000010401FC01043D
:10297000010001FC0104010000FC010401FC0084D1
:1029800001000100010400FC0004000000F8010443
:1029900001040104010400F80000010101FF0085A9
:1029A000010401040088007000000000007000882D
:1029B00001040104010501FF00010104010401FCFF
:1029C00000840104010001800000000000CC01240B
:1029D00001240124012401980000000001000100ED
:1029E00007F80104010400000000010001F80004E0
:1029F00000040004010801FC0004010001800170D2
:102A0000000C001001600180010001F0010C003099
:102A100001C00030010C01F0010000000104018C34
:102A200000740170018C0104000001010181017139
:102A3000000E001801600180010000000184010CFB
:102A4000013401440184010C00000000000000007A
:102A5000000001003EFC40024002000000000000B7
:102A60000000FFFF000000000000000040024002E4
:102A70003EFC01000000000000000000600080003B
:102A80008000400040002000200000000000000006
:102A90000000000000000000000000000000000036
:102AA0000000000000000000000000000000000026
:102AB000000000000000000000000000000F80384F
:102AC0000FFE380F803800000000000000000000FA
:102AD00000000000000000000100000600000C00E3
:102AE000003800003100000600000C000038000033
:102AF0003000000000000000000061800067F8075F
:102B0000F980006180006180006180006180006761
:102B1000F807F9800061800000000000000000005C
:102B200001C0E003E0F00630080418081FFFFE04AF
:102B30000E080787F00381E000000000000001F0AC
:102B400000060C00040408060C7001F9C0000E0019
:102B5000003BE000EC18070808040C180003E00034
:102B600000000001E00007F003F818041C08041737
:102B70000807E1D003C0E00023B0003C08002008B3
:102B800000001000000000000001000031000032D1
:102B900000001C0000000000000000000000000019
:102BA0000000000000000000000000000000000025
:102BB000000000000000000000007F0001FFC007CF
:102BC00080F00C001810000420000200000000003B
:102BD000002000021000040C00180780F001FFC064
:102BE000007F000000000000000000000000000066
:102BF0000000000000004200006600006600003C8B
:102C00000000180003FFC0001800003C0000660030
:102C100000660000420000000000080000080000FC
:102C2000080000080000080001FFC00008000008BC
:102C3000000008000008000008000000000000017B
:102C400000003100003200001C0000000000000005
:102C50000000000000000000000000000000000074
:102C6000000008000008000008000008000008003C
:102C7000000800000800000800000800000800002C
:102C800000000000000000000000380000380000D4
:102C900038000000000000000000000000000000FC
:102CA00000000000000000000000000600001C0002
:102CB0000070000180000E0000380000C000070016
:102CC000001C0000300000000000000000007F80B9
:102CD00001FFE003807006001804000804000806E5
:102CE000001803807001FFE0007F800000000000FA
:102CF0000000000001000801000801000803FFF8BF
:102D000007FFF800000800000800000800000000AD
:102D1000000000000001C03802C0580400980401FF
:102D200018040218040418061C1803F81801E0F827
:102D300000000000000000000001C0E003C0F0043B
:102D4000000804080804080806180803F41801E736
:102D5000F00001E00000000000000000000003009F
:102D6000000D000011000061000081080301080748
:102D7000FFF80FFFF8000108000108000000000044
:102D8000000000E007FCD00608080610080610083E
:102D9000061008061838060FF00607C000000000ED
:102DA0000000000000003F8001FFE00384300208C3
:102DB00018041008041008041008071810030FF076
:102DC0000007C000000000000000000003C0000772
:102DD00000000600000600F80607F806180006E0E6
:102DE0000007000006000000000000000001E1E014
:102DF00003F7F0063410041808041808040C08043B
:102E00000C0806161803F3F001C1E00000000000F2
:102E10000000F80003FC300306380402080402082E
:102E20000402080404100308F001FFC0007F000042
:102E30000000000000000000000000000000000092
:102E4000000070380070380070380000000000008A
:102E50000000000000000000000000000000000072
:102E6000000000000000301A00301C0000000000CC
:102E70000000000000000000000000000000000052
:102E800000080000140000220000410000808001C2
:102E900000400200200400100800080000000000AC
:102EA000000021000021000021000021000021007D
:102EB000002100002100002100002100002100006D
:102EC00000000000000000000800080400100200DC
:102ED000200100400080800041000022000014001A
:102EE00000080000000000000003C00004C000044F
:102EF0000000080038080F380808380810000C30A7
:102F00000007E00003C000000000000000003F8058
:102F100000FFE0038070020F1006708804C0880470
:102F20008308047F8802C09003012000FE40000057
:102F3000080000180001F8003E0801C20007020066
:102F400007E20000FE00001FC80001F80000380082
:102F5000000804000807FFF807FFF8040808040841
:102F60000804080804080806180803F41801E7F024
:102F70000001E0000000000000003F8001FFE003CE
:102F8000807002001804000804000804000804000F
:102F9000100600200780C000000004000807FFF8AA
:102FA00007FFF804000804000804000804001802E1
:102FB000001003807001FFE0007F8000000004002B
:102FC0000807FFF807FFF8040808040808040808C1
:102FD000040808043E080400080600180100600008
:102FE000000004000807FFF807FFF80408080408B9
:102FF00000040800040800043E000600000600006B
:10300000018000000000000000003F8001FFE0039D
:103010008070060018040008040208040208020375
:10302000F00783F000020000020004000807FFF828
:1030300007FFF80408080008000008000008000066
:10304000080004080807FFF807FFF804000800005C
:103050000000000004000804000804000807FFF84E
:1030600007FFF8040008040008040008000000003E
:10307000000000000000000600000700000104003E
:103080000104000104000307FFFE07FFFC04000029
:1030900004000004000004000807FFF807FFF8041C
:1030A0000C08001800003E0004C7800503C8060095
:1030B000F804003804001800000804000807FFF8AE
:1030C00007FFF804000800000800000800000800DE
:1030D0000008000008000018000060000000040064
:1030E0000807FFF807800807FC00007FC00003F80E
:1030F0000007C000780007800807FFF807FFF80402
:10310000000804000807FFF807000803C00000E0FB
:1031100000003800001E000007000001C00400F09D
:1031200007FFF8040000000000007F8001FFE003BB
:103130008070060018040008040008060018030048
:103140003001FFE0007F8000000004000807FFF866
:1031500007FFF80404080404000404000404000445
:103160000400060C0003F80001F00000000000005D
:1031700000007F8001FFE003807006008804008863
:103180000400C806003C03003E01FFE6007F840007
:10319000000004000807FFF807FFF8040808040807
:1031A00000040C00040F00040BC00610F003F038FC
:1031B00001E00800000800000001E0F803F030061C
:1031C0003010041808041808040C08040C0802063F
:1031D000180207F00781E0000000018000060000EF
:1031E00004000004000004000807FFF807FFF804CB
:1031F0000008040000040000060000018000040034
:103200000007FFE007FFF0040018000008000008B6
:1032100000000800000800000804001007FFE00498
:10322000000004000006000007E00007FE00041F85
:10323000E00001F80000380001E0043E0007C00093
:1032400006000004000004000007E00007FFC004BF
:103250001FF80007C007F80007FF80043FF80007C9
:10326000C004F8000700000400000000000400088B
:1032700006001807C07805F1C8003E00001F800452
:1032800063E80780F8060018040008000000040046
:103290000006000007800007E008047C08001FF813
:1032A0000007F800180804E0080700000600000402
:1032B00000000000000100080600380400F80403C4
:1032C000E8040F08047C0805F00807C00807001888
:1032D000040060000000000000000000000000008A
:1032E00000000000003FFFFE20000220000220003E
:1032F0000220000220000200000000000000000088
:1033000008000007000000C00000380000060000B0
:1033100001C000003000000E0000010000000000AD
:103320000000000020000220000220000220000215
:103330002000023FFFFE000000000000000000002F
:103340000000000000000000000000080000100065
:1033500000300000200000300000100000080000D5
:10336000000000000000000001000001000001005A
:103370000001000001000001000001000001000048
:103380000100000100000100000100000000000039
:1033900000000020000020000010000010000000CD
:1033A000000000000000000000000000000000001D
:1033B000000000F00019F8001B1800220800260881
:1033C000002408002410003FF8001FF80000080047
:1033D000001800000004000007FFF80FFFF00018BD
:1033E00018001008002008002008003018001FF006
:1033F000000FC00000000000000007C0001FF00028
:103400001830002008002008002008003C08001C9C
:10341000100000600000000000000000000007C075
:10342000001FF000381800200800200800200804C1
:10343000101007FFF80FFFF0000010000000000060
:10344000000000000007C0001FF00012300022182A
:10345000002208002208003208001E10000E200082
:10346000000000000000200000200800200801FFEC
:10347000F803FFF8062008042008042008072000AD
:1034800003000000000000000000000E000E6E00AF
:103490001FF30031B10020B10020B1003191001FB5
:1034A00013002E1E00200E00300000000004000853
:1034B00007FFF80FFFF800100800200000200000B0
:1034C0002008003FF8001FF800000800000000007E
:1034D00000000000002008002008002008063FF837
:1034E000063FF80000080000080000080000000087
:1034F00000000000000000000000030000030020A6
:1035000001002001002003063FFE063FFC000000F2
:1035100000000000000000000004000807FFF80F92
:10352000FFF8000188000300002FC00038F80020D9
:103530003800200800000800000000000000000023
:1035400004000804000804000807FFF80FFFF80053
:103550000008000008000008000000000000002033
:1035600008003FF8003FF8001008002000003FF876
:10357000003FF8001008002000003FF8003FF8006E
:103580000008000000002008003FF8003FF800108D
:1035900008001000002000002008003FF8001FF87D
:1035A0000000080000000000000007C0000FF0004D
:1035B00018300030080020080020080030080018EB
:1035C00030000FF00007C0000000000000002001E4
:1035D000003FFF003FFF00101100200900200800FD
:1035E0002008003038001FF0000FC000000000006D
:1035F000000007C0001FF000381800200800200855
:10360000002009001011001FFF003FFF0000010013
:103610000000002008002008002008003FF8003FBC
:10362000F800080800100800200800200000300002
:10363000003000000000000000000000000C7800D6
:103640001E180033080023080021080021880021EB
:10365000980030F0003860000000000000002000FA
:1036600000200000200000FFF003FFF80020080009
:1036700020080020080000300000000000000000CA
:1036800000002000003FF0007FF800001800000854
:10369000000008002010003FF8007FF0000010003C
:1036A0000000000000002000003000003C00003F4F
:1036B000800023F0000078000070002380003C00B0
:1036C000003000002000002000003C00003FE0002F
:1036D00023F80000E0002700003E00003FE000214A
:1036E000F80001E0003E000020000000000020087B
:1036F000002008003838003E680027800003C8001A
:103700002CF80038380020180020080000000000C5
:1037100000002000003003003C01003F830023EC48
:10372000000070002380003C00002000002000000A
:1037300000000000000000000038080020380020D1
:10374000F80023E8002F88003E0800380800201801
:1037500000007000000000000000000000000000F9
:1037600000000000000008000014001FF7FC3000FB
:103770000620000200000000000000000000000021
:10378000000000000000000000000000FFFFFF003C
:103790000000000000000000000000000000000029
:1037A000000000002000023000061FF7FC0014009B
:1037B0000008000000000000000000000000000001
:1037C0000000000000180000600000400000400001
:1037D00000200000100000080000040000040000A9
:1037E0000C00001000000000083800080000002055
:1037F000D0190000C4010008883B0008D01900203F
:10380000C80A0000200200084816FF010D15FD152A
:103810008D01C101E101F10101F9F5E54D1DBD0188
:103820004E1DEDF5F901015FF191FD057575033050
:10383000174575058DFD011119FDFD191141C1FDDA
:10384000FDC1410101FFFF7A0102116E030504066B
:103850000701940605035951790139134919413972
:1038600048911C3E3F03013583C7FE7C300BF0FCC2
:103870001E070303071EFCF06B06062A1BFCFE1640
:103880001918B48EFCF8C948280AE0F0F8DECFCF4A
:10389000C3C1F03B300B0F3F78E0C0C0E0783F0F72
:1038A0002808C0C0FFFFC0C0C0801C73F7C6013B22
:1038B000E37B1889480A43800112FF100A030509B7
:1038C00011FF118905C312E012F069AC073D4428CD
:1038D000FF11AA44700B83013844829292740183D1
:1038E0001E7C44FF017D01990562FF9A0102818AD5
:1038F000010B013669419949FA010101204BF80891
:10390000011135F818608035806018F82B202006EA
:10391000312BE0101EAB10E014613937043E88688B
:10392000186A7FA71A7FBE4C0618060A1146404047
:103930007F40401C1F204001AB201F141162603AE1
:10394000602F01441E40202020C0ED190729EA2ADB
:103950004005115A600E8918792959070149260C2A
:103960000A0A090C360F0808080F2C080F08151D45
:103970000809090E0719181C09090918190A5929F3
:10398000590701605A8001013D20087F030C300C6B
:10399000037F2538545458257C04047805223C4084
:1039A000407C17FFAAAAAA28080A2CFF681E2649ED
:1039B000494932101D020408100F847A030A2009B5
:1039C00001020304060708091BF010012AFF055233
:1039D000F01B0F04012AFF05320F18094040405F19
:1039E00055555575041A5F0C1911180C200F09490B
:1039F00089790909090F200F112FFE02424ACA4A8C
:103A0000032C4202FEA9380C40504C4340404F501A
:103A1000505C40AE1BF888012AFF0552F81B1F08B6
:103A2000012A7F10149F80F03B8082016009E2A28E
:103A3000928A868280801B4080AD61172424A4FE78
:103A4000A3221B22CC5A4115080601FF2A019E160B
:103A500004FF02020239BC5B9008631208101004D4
:103A600044827F01808040432C10284681801928A1
:103A70001E84E43C2724011AE40C11140402011AE8
:103A8000FFBD19C4496415FE225A862BFE920129F6
:103A9000BF111DFF040807C51F20030C142241E1BC
:103AA000178040201806802D071820409E12011014
:103AB0000B207028262120202438602301013B1090
:103AC000123C3D9212120240211A3F948B103FC5C6
:103AD0004BC080014BFC84080336C0C03CFF7F40D4
:103AE000014AFF075B40FF600138034A7F700373A0
:103AF000FCF86CFFFE02018BFFFF0B0268036C1FDA
:103B00001F04017BFFFF0B02741F038C7F3F07FF25
:103B1000F8F8F0F0702001E60214801AFF01091293
:103B20002C09132D01FF01C0EDFFFFFE06011AFF56
:103B300001F915391603FF070201D10C12FFFFFF2F
:103B40001409101509151601FF01C1EDFFFFFF183B
:103B5000011914091015391601FF01D204120201CE
:103B6000011AFF01011209122A01FF01D71AFF01F0
:103B700001FF01FD05FF1F1F0F0F01EE2D010203C5
:083B80000404250607080900F2
:040000050800018965
:00000001FF
