:020000040800F2
:10000000501D00209D010008170500081305000879
:10001000150500083B020008E50B00080000000081
:100020000000000000000000000000006B0B000852
:100030003D02000800000000690B00086D0B00087D
:10004000B7010008B7010008B7010008B7010008B0
:10005000B7010008B7010008B7010008B7010008A0
:10006000B7010008B7010008B7010008B701000890
:10007000B7010008B7010008B7010008B701000880
:10008000B7010008B7010008B7010008B701000870
:10009000B7010008B7010008B7010008B701000860
:1000A000B7010008B7010008B7010008B701000850
:1000B000B7010008B7010008B7010008B701000840
:1000C000B7010008B7010008B7010008B701000830
:1000D000B7010008B7010008B7010008B701000820
:1000E000B7010008B7010008B7010008B701000810
:1000F000B7010008B7010008B7010008B701000800
:10010000000000000000000000000000B70100082F
:10011000B7010008B7010008B7010008B7010008DF
:10012000B7010008B7010008B7010008B7010008CF
:10013000B7010008B701000800000000000000003F
:10014000B7010008B7010008B7010008000000006F
:10015000000000000000000000000000000000009F
:100160000000000000000000B7010008B70100080F
:10017000B7010008000000000000000000000000BF
:1001800000000000B7010008DFF80CD000F018F8FC
:1001900000480047050C0008501D00200648804715
:1001A00006480047FEE7FEE7FEE7FEE7FEE7FEE75C
:1001B000FEE7FEE7FEE7FEE77D0B00088901000889
:1001C000064C074D06E0E06840F0010394E80700A4
:1001D00098471034AC42F6D3FFF7DAFF1025000839
:1001E0003025000870B58C1810F8015B15F0070376
:1001F00001D110F8013B2A1106D110F8012B03E0C0
:1002000010F8016B01F8016B5B1EF9D12B0705D4C7
:100210000023521E0DD401F8013BFAE710F8013B10
:10022000CB1A921C03E013F8015B01F8015B521E2C
:10023000F9D5A142D8D3002070BDFEE77047000079
:1002400070B5044600F0D8F80546601C02D004489A
:100250000078044400F0D0F8401BA042FAD370BDEF
:10026000A41500202DE9F84FDFF864B100234FF00A
:10027000010C4FF0030A4FF00F090BF1040EA0E040
:100280000CFA03F6324072D04C68022C01D0122CCA
:100290000ED1DC0800EB8408D8F820405D07EF0E93
:1002A00009FA07F5AC430D69BD402543C8F8205055
:1002B00007685D0091F804800AFA05F408F0030865
:1002C000A74308FA05F848EA0708C0F800804F6815
:1002D000012F05D0022F03D0112F01D0122F11D1E1
:1002E0008768D1F80C80A74308FA05F848EA0708A0
:1002F000C0F808804768B7430E79C6F300169E40E1
:100300003E434660C668A6438C68AC403443C46034
:100310004C68E40054D52F4CA56945F00105A56152
:10032000A46923F0030504F0010400942A4C2E195B
:10033000B4689D072F0F09FA07F5AC43B0F1904F51
:1003400004D0264DA84203D1012512E0002510E07B
:10035000234DA84201D102250BE0224DA84201D134
:10036000032506E0204DA84202D1042501E027E044
:100370000525BD402543B560DBF800405D464E686D
:100380009443F60300D514432C60DEF80040754614
:100390004E689443B60300D514432C600C4D0835C9
:1003A0002C684E689443F60200D514432C60084D27
:1003B0000C352C684E689443B60200D514432C606B
:1003C0005B1C0A6832FA03F47FF45AAFBDE8F88F79
:1003D00000040140001002400000014000040048F9
:1003E00000080048000C0048001000480AB1816174
:1003F00070478162704700000148806870470000C4
:10040000A415002002488168027811448160704779
:10041000A4150020074810B5016841F010010160E3
:10042000032000F04BF8002000F006F800F024F85C
:10043000002010BD0020024070B50D4D04464FF461
:100440007A712878B1FBF0F00A490968B1FBF0F045
:1004500000F047F848B9102C07D200222146501E60
:1004600000F00CF800206C6070BD012070BD000031
:10047000A41500206801002070470000F0B40E4B66
:100480001B680C46C3F30223C3F10705042D00D9F2
:100490000425191D072901D2002300E0DB1E0126D7
:1004A00006FA05F1491E214099409E40761E1640ED
:1004B0003143F0BC00F030B80CED00E0064900F02C
:1004C000070208684FF6FF03184040EA0220034A7B
:1004D00010430860704700000CED00E00000FA05D2
:1004E000704710B5401EB0F1807F01D3012010BDD0
:1004F0004FF0E02460610F21601700F00DF800203C
:10050000A06107202061002010BD10B5FFF7E8FFB3
:1005100010BDFEE7FEE770470907090E002806DA5E
:1005200000F00F0000F1E02080F8141D704700F18A
:10053000E02080F80014704730B40021084B0A46D0
:100540005FF0000003EBC004401CC0B2625464289A
:10055000F8D3491CC9B20529F2D330BC00F010B958
:10056000B01500201C30C3B2CA0801F007000121F9
:100570008140044800EBC303985C61EA0000C0437B
:1005800098547047B01500201C30C3B2CA0801F05F
:10059000070101208840034901EBC3018B5C034341
:1005A0008B547047B01500202DE9F0436D4887B09B
:1005B000416941F480014161416901F48001059183
:1005C000416941F400314161416901F40031059113
:1005D000416941F480114161416901F48011059143
:1005E000416941F48021416140694FF0904700F436
:1005F000802005900122B0213846FFF7F7FEDFF892
:100600006881012204214046FFF7F0FEDFF85C918B
:100610004FF47876012231464846FFF7E7FE012481
:10062000B020CDE90004032569463846CDE90245EE
:10063000FFF718FE0420CDE9000469464046CDE9E5
:100640000245FFF70FFECDE9006469464846CDE953
:100650000245FFF707FE002204214046FFF7C6FED1
:10066000C820FFF7EDFD012204214046FFF7BEFE42
:100670000021AE2000F03CFA0021D52000F038FA2D
:100680000021F02000F034FA0021A82000F030FA18
:100690000021272000F02CFA0021D32000F028FAB6
:1006A0000021084600F024FA0021402000F020FA42
:1006B00000218D2000F01CFA0021142000F018FA0F
:1006C0000021202000F014FA0021022000F010FA8E
:1006D0000021A12000F00CFA0021C82000F008FA47
:1006E0000021DA2000F004FA0021122000F000FAC4
:1006F0000021AD2000F0FCF90021302000F0F8F9D5
:100700000021812000F0F4F90021FF2000F0F0F931
:100710000021D92000F0ECF90021222000F0E8F9B6
:100720000021DB2000F0E4F90021202000F0E0F9B6
:100730000021A42000F0DCF90021A62000F0D8F967
:1007400000210C2000F0D4F90021112000F0D0F994
:100750000021AF2000F0CCF9FFF7EEFE07B0BDE8B6
:10076000F083000000100240000C00480004004824
:100770000246012000E05043491EC9B2FBD2704737
:1007800070B5114E002400BF04F1B000C0B20021CA
:1007900000F0AEF90021084600F0AAF9002110206F
:1007A00000F0A6F95FF0000506EBC5000121005D31
:1007B00000F09EF96D1CEDB2642DF5D3641CE4B21B
:1007C000052CE1D370BD0000B01500200026224C9E
:1007D0000F4680463546102332460D21642000F036
:1007E00093F8761CF6B246451AD1002614E0002193
:1007F000002004EBC10202EB000C135C401CC0B2F1
:100800000CF8083C0828F6D3491CC9B29029EFD34C
:10081000FFF7B6FF761CF6B2B6EB071FE7D300264C
:100820006D1CEDB2102D00D100250021002004EB3D
:10083000C10202EB000C135C401CC0B20CF8083C77
:100840000828F6D3491CC9B29029EFD3FFF798FFC7
:10085000002DC8D1BFE70000B01500202DE9FF4FE3
:100860001D460C468946580700D0012000EBD500F4
:10087000690810FB01F0203A00F0FF0A02F0FF0BBC
:10088000002637E00C2D12D0102D16D0182D33D1A4
:100890001A490BEBCB0001EB80004FF00008875D9D
:1008A0002146380600980CD5FFF76EFE0BE0144881
:1008B0000BEB4B0100EB8100EFE7124901EB0B1052
:1008C000EBE7FFF74FFE7806641C070EE4B2A4EBDB
:1008D0000900A84205D100984C46401CC0B20090C7
:1008E00006E008F1010000F0FF08B8F1080FD7D3C7
:1008F000761CF6B25645C5D3BDE8FF8FB417000885
:10090000500D0008C41100082DE9FF4F83B0814647
:100910000020CDE901091C4688468B464FEAD30AE0
:1009200052E0059810FB04F1019800EBD100C0B231
:1009300000900198401CC0B20025019042E0102CAC
:1009400012D0182C15D0202C1AD0402C41D122497D
:10095000009801EB40200027465D4146F0074846DD
:1009600014D0FFF711FE13E01C49009801EB0010B2
:10097000F1E700981A4900EBC00001EBC000EAE77C
:1009800017490098D83101EBC010E4E7FFF7EAFD02
:100990007F1C760808F10100FFB200F0FF08082F65
:1009A000DBD309F10100029900F0FF09A9EB010076
:1009B000A04204D10BF10800894600F0FF0B6D1C2A
:1009C000D846EDB2A542BAD3BAF1010101F0FF0A4F
:1009D000A7D207B0BDE8F08FA40500206C0100206D
:1009E000CC0200202DE9F0471D46DDF8208091461D
:1009F0008A46074600244FEA580618E0281B401E86
:100A0000C1B20A20FFF7B4FEB9FBF0F00A21B0FB37
:100A1000F1F201FB120070B13030C2B206FB04707B
:100A2000C0B243465146FFF719FF641CE4B2AC4222
:100A3000E4D3BDE8F08706FB0470C0B24346302221
:100A4000F0E72DE9F047984617460C468246002607
:100A5000DDF8209011E02146504600F032F855466E
:100A600007E019F80600012100F042F86D1CEDB214
:100A7000761CBD42F5D3641CE4B24445EBD3BDE81B
:100A8000F0872DE9F0411E46154688460446C3F11D
:100A900080070FE0334641462046FFF7DFFE04EBB8
:100AA0005600C4B2A74204DA08F10200002400F0A4
:100AB000FF086D1C2A78A2F120005E28EAD9BDE863
:100AC000F08110B50446B031C8B2002100F010F832
:100AD0001C34C4F3031040F01000002100F008F8AB
:100AE00004F00F00BDE81040002100F001B8000044
:100AF0002DE9F0411B4F054609B1012200E000221B
:100B000020213846FFF772FC4FF09046002210215A
:100B10003046FFF76BFC0024002220213046FFF70F
:100B200065FC280601D5012200E000228021304624
:100B3000FFF75CFC012220213046FFF757FC6806D6
:100B4000641C050EE4B2082CE6D3012210213046C5
:100B5000FFF74CFC3846BDE8F04101222021FFF7A9
:100B600045BC0000000400487047704710B5FFF70F
:100B700049FCBDE81040FFF7C8BC000014480168FC
:100B800041F4700101601348016841F00101016006
:100B90004168114A114041600168104A11400160EA
:100BA000016821F480210160416821F4FE01416067
:100BB000C16A21F00F01C162016B094A1140016352
:100BC000002181600249C00380390860704700003D
:100BD00088ED00E0001002400CC07FF8FFFFF6FE39
:100BE000CCFC00FFFEE702E008C8121F08C1002A83
:100BF000FAD170477047002001E001C1121F002A9E
:100C0000FBD1704708B52024FFF704FCFFF7CCFCAC
:100C10000022E1014548FFF7E9FB454E4FF4FA7524
:100C2000102700210523482208460096FFF709FFF8
:100C30002846FFF705FBFFF77FFC00221023114633
:100C40000C20FFF761FE1023012200211C20FFF77A
:100C50005BFE1023022200212C20FFF755FE1023FB
:100C600034A219460820FFF70CFFFFF789FD28463C
:100C7000FFF7E6FAFFF760FC002110232FA20846D9
:100C8000FFF7FFFE10232FA219460020FFF7F9FE01
:100C90001023224600213020FFF7E0FD641CE4B25F
:100CA0007E2C00D9202403232246102130200097D7
:100CB000FFF798FEFFF764FD2846FFF7C1FAFFF73C
:100CC0003BFC0022102311461046FFF71DFE0022B8
:100CD000182310211046FFF717FE0022202311468B
:100CE0001820FFF711FEFFF74BFD2846FFF7A8FA83
:100CF000FFF722FC00210C2314A20846FFF7C1FED7
:100D0000102312A20C210020FFF7BBFE18230FA214
:100D100000211C20FFF7B5FEFFF732FD2846FFF744
:100D20008FFA04210B20FFF751FD7AE700080048F5
:100D300000000020323031392F3032004153434916
:100D4000493A0000434F4445203A000041424300E5
:100D50000000000000000000000000000000000093
:100D60003F40000000000000000030004000300064
:100D70004000000009000BC03D000BC03D00090011
:100D800018C024407FE0224031800000180024C0B9
:100D90001B000D803240018003801C4027401C80D6
:100DA000074000401000600000000000000000004C
:100DB0000000000000001F80204040200000402074
:100DC00020401F8000000000090006001F80060070
:100DD00009000000040004003F800400040000003B
:100DE000001000600000000000000000040004008B
:100DF00004000400040000000000004000000000A7
:100E000000000000002001C0060038004000000083
:100E10001F802040204020401F8000000000104024
:100E20003FC000400000000018C021402240244084
:100E30001840000010802040244024401B80000007
:100E400002000D0011003FC0014000003C80244022
:100E500024402440238000001F802440244034404C
:100E6000038000003000200027C038002000000070
:100E70001B802440244024401B8000001C0022C012
:100E8000224022401F8000000000000008400000B7
:100E900000000000000000000460000000000000EE
:100EA000000004000A0011002080404009000900F1
:100EB00009000900090000000000404020801100E6
:100EC0000A0004001800200023402400180000003D
:100ED0001F802040274029401F400000004007C0DD
:100EE00039000F0001C0004020403FC02440244092
:100EF0001B8000001F8020402040204030800000E8
:100F000020403FC0204020401F80000020403FC0C4
:100F100024402E4030C0000020403FC024402E001E
:100F2000300000000F00108020402240338002007B
:100F300020403FC0040004003FC02040204020402B
:100F40003FC02040204000000060202020203FC003
:100F50002000200020403FC024400B0030C0204033
:100F600020403FC020400040004000C03FC03C0047
:100F700003C03C003FC0000020403FC00C402300A5
:100F80003FC020001F802040204020401F800000E4
:100F900020403FC024402400180000001F80214052
:100FA000214020E01FA0000020403FC02440260038
:100FB00019C0004018C02440244022403180000065
:100FC000300020403FC020403000000020003F8023
:100FD000004000403F80200020003E0001C007008C
:100FE00038002000380007C03C0007C0380000006F
:100FF000204039C0060039C02040000020003840A1
:1010000007C0384020000000304021C02640384052
:1010100020C00000000000007FE0402040200000D1
:10102000000070000C000380004000000000402021
:1010300040207FE000000000000020004000200071
:101040000000000000100010001000100010001040
:1010500000000000400000000000000000000280CE
:101060000540054003C0004020003FC0044004404C
:10107000038000000000038004400440064000009C
:1010800000000380044024403FC000400000038073
:101090000540054003400000000004401FC02440FC
:1010A00024402000000002E00550055006500420B6
:1010B00020403FC00440040003C000400000044042
:1010C00027C000400000000000100010041027E0BE
:1010D0000000000020403FC00140070004C0044061
:1010E000204020403FC000400040000007C00400F6
:1010F00007C0040003C00000044007C0044004000F
:1011000003C000400000038004400440038000004E
:10111000041007F004500440038000000000038026
:101120000440045007F00010044007C002400400CF
:1011300004000000000006400540054004C0000017
:10114000000004001F8004400040000004000780ED
:101150000040044007C000400400070004C00180B4
:1011600006000400060001C0070001C006000000E0
:10117000044006C0010006C004400000041007102F
:1011800004E00180060004000000044005C00640A1
:10119000044000000000000004007BE0402000004C
:1011A000000000000000FFF00000000000004020F0
:1011B0007BE00400000000004000800040002000B0
:1011C00020004000000000000000000000000000BF
:1011D000000000000000000000001FCC000C000018
:1011E000000000000000080030006000080030002F
:1011F00060000000022003FC1E20022003FC1E20D1
:101200000220000000000E1811043FFF10840C782B
:10121000000000000F0010840F3800C00778188409
:101220000078000000780F8410C411240E9800E4A8
:101230000084000808006800700000000000000042
:101240000000000000000000000007E01818200463
:1012500040020000000040022004181807E00000CF
:10126000000000000240024001800FF001800240B7
:10127000024000000080008000800FF800800080A5
:10128000008000000001000D000E000000000000C2
:1012900000000000000000800080008000800080CE
:1012A000008000800000000C000C00000000000026
:1012B0000000000000000006001800600180060029
:1012C00018002000000007F00808100410040808A7
:1012D00007F000000000080408041FFC00040004DC
:1012E0000000000000000E0C1014102410441184A3
:1012F0000E0C000000000C181004110411041288D8
:101300000C700000000000E00320042408241FFCEF
:101310000024000000001F9810841104110410889C
:1013200010700000000007F00888110411041888EC
:101330000070000000001C00100010FC13001C00D6
:101340001000000000000E38114410841084114475
:101350000E38000000000700088C10441044088874
:1013600007F00000000000000000030C030C000068
:101370000000000000000000000101060000000065
:101380000000000000000080014002200410080856
:10139000100400000220022002200220022002206D
:1013A0000220000000001004080804100220014080
:1013B0000080000000000E001200100C106C108065
:1013C0000F00000003E00C1813E4142417C40828CD
:1013D00007D000000004003C03C41C40074000E4A8
:1013E000001C000410041FFC1104110411040E88D9
:1013F0000070000003E00C18100410041004100822
:101400001C10000010041FFC100410041004080835
:1014100007F0000010041FFC1104110417C410048D
:101420000818000010041FFC1104110017C0100060
:101430000800000003E00C181004100410441C788D
:101440000040000010041FFC108400800080108405
:101450001FFC10040000100410041FFC10041004F2
:101460000000000000030001100110011FFE100029
:101470001000000010041FFC110403801464181CE9
:101480001004000010041FFC1004000400040004F9
:10149000000C000010041FFC1F0000FC1F001FFCBC
:1014A0001004000010041FFC0C04030000E01018DE
:1014B0001FFC100007F008081004100410040808AE
:1014C00007F0000010041FFC1084108010801080B2
:1014D0000F00000007F0081810241024101C080A40
:1014E00007F2000010041FFC1104110011C011309C
:1014F0000E0C000400000E1C110410841084104413
:101500001C3800001800100010041FFC100410000C
:101510001800000010001FF810040004000410045C
:101520001FF8100010001E0011E0001C0070138056
:101530001C0010001FC0103C00E01F0000E0103C29
:101540001FC000001004180C163401C001C016346E
:10155000180C100410001C00130400FC13041C00E1
:10156000100000000804101C1064108413041C04F4
:10157000101800000000000000007FFE4002400242
:1015800040020000000030000C0003800060001CDE
:101590000003000000004002400240027FFE000005
:1015A000000000000000000020004000400040005B
:1015B0002000000000010001000100010001000105
:1015C0000001000100004000400020000000000079
:1015D000000000000000009801240144014401447F
:1015E00000FC000410001FFC0088010401040088B6
:1015F0000070000000000070008801040104010474
:101600000088000000000070008801040104110837
:101610001FFC0004000000F801440144014401449F
:1016200000C800000000010401040FFC11041104B3
:1016300011001800000000D601290129012901C963
:101640000106000010041FFC0084010001000104D9
:1016500000FC000400000104190419FC000400044B
:10166000000000000000000300010101190119FE43
:101670000000000010041FFC0024004001B4010C15
:10168000010400000000100410041FFC000400040A
:1016900000000000010401FC0104010001FC010440
:1016A000010000FC010401FC0084010001000104B0
:1016B00000FC0004000000F801040104010401041E
:1016C00000F80000010101FF008501040104008809
:1016D0000070000000000070008801040104010592
:1016E00001FF00010104010401FC00840104010068
:1016F00001800000000000CC012401240124012409
:101700000198000000000100010007F80104010435
:1017100000000000010001F80004000400040108BA
:1017200001FC0004010001800170000C0010016048
:101730000180010001F0010C003001C00030010CFB
:1017400001F0010000000104018C00740170018CA3
:1017500001040000010101810171000E0018016007
:101760000180010000000184010C01340144018466
:10177000010C0000000000000000000001003EFC21
:10178000400240020000000000000000FFFF0000D7
:10179000000000000000400240023EFC010000008A
:1017A0000000000000006000800080004000400059
:1017B00020002000000000000000000000000000E9
:1017C0000000000000000000000000000000000019
:1017D0000000000000000000000000000000000009
:1017E000000000000000000F80380FFE380F803826
:1017F00000000000000000000000000000000000E9
:1018000000000100000600000C000038000031005C
:10181000000600000C00003800003000000000004E
:101820000000000061800067F807F9800061800017
:1018300061800061800061800067F807F9800061C5
:101840008000000000000000000001C0E003E0F0A4
:101850000630080418081FFFFE040E080787F0036F
:1018600081E000000000000001F000060C0004040C
:1018700008060C7001F9C0000E00003BE000EC18F7
:10188000070808040C180003E00000000001E00055
:1018900007F003F818041C0804170807E1D003C078
:1018A000E00023B0003C0800200800001000000009
:1018B0000000000100003100003200001C000000A8
:1018C0000000000000000000000000000000000018
:1018D0000000000000000000000000000000000008
:1018E000000000007F0001FFC00780F00C0018100E
:1018F0000004200002000000000000200002100090
:10190000040C00180780F001FFC0007F00000000F9
:1019100000000000000000000000000000000000C7
:101920004200006600006600003C0000180003FF53
:10193000C0001800003C0000660000660000420085
:101940000000000008000008000008000008000077
:10195000080001FFC000080000080000080000089F
:10196000000008000000000000010000310000320B
:1019700000001C000000000000000000000000004B
:101980000000000000000000000000000800000847
:10199000000008000008000008000008000008001F
:1019A000000800000800000800000000000000001F
:1019B000000000003800003800003800000000007F
:1019C0000000000000000000000000000000000017
:1019D00000000000000600001C00007000018000F4
:1019E0000E0000380000C0000700001C000030009E
:1019F00000000000000000007F8001FFE003807015
:101A0000060018040008040008060018038070018E
:101A1000FFE0007F800000000000000000000100E7
:101A20000801000801000803FFF807FFF80000089C
:101A30000000080000080000000000000000000195
:101A4000C03802C0580400980401180402180404A5
:101A500018061C1803F81801E0F800000000000048
:101A600000000001C0E003C0F004000804080804FE
:101A7000080806180803F41801E7F00001E0000068
:101A800000000000000000000300000D0000110035
:101A900000610000810803010807FFF80FFFF8004C
:101AA00001080001080000000000000000E007FC41
:101AB000D006080806100806100806100806183890
:101AC000060FF00607C00000000000000000000044
:101AD0003F8001FFE003843002081804100804105E
:101AE00008041008071810030FF00007C0000000DA
:101AF00000000000000003C0000700000600000610
:101B000000F80607F806180006E0000700000600C7
:101B10000000000000000001E1E003F7F0063410CF
:101B2000041808041808040C08040C080616180306
:101B3000F3F001C1E000000000000000F80003FC29
:101B400030030638040208040208040208040410E2
:101B50000308F001FFC0007F00000000000000004B
:101B6000000000000000000000000000703800705D
:101B70003800703800000000000000000000000085
:101B80000000000000000000000000000000000055
:101B9000301A00301C0000000000000000000000AF
:101BA0000000000000000000000000080000140019
:101BB000002200004100008080010040020020045B
:101BC00000100800080000000000000021000021B3
:101BD0000000210000210000210000210000210060
:101BE0000021000021000021000000000000000092
:101BF00000000800080400100200200100400080DE
:101C000080004100002200001400000800000000D5
:101C100000000003C00004C00004000008003808F1
:101C20000F380808380810000C300007E00003C027
:101C300000000000000000003F8000FFE003807013
:101C4000020F1006708804C088048308047F88028D
:101C5000C09003012000FE400000080000180001B1
:101C6000F8003E0801C20007020007E20000FE0083
:101C7000001FC80001F80000380000080400080731
:101C8000FFF807FFF8040808040808040808040817
:101C90000806180803F41801E7F00001E00000004E
:101CA000000000003F8001FFE00380700200180484
:101CB0000008040008040008040010060020078043
:101CC000C000000004000807FFF807FFF804000840
:101CD00004000804000804001802001003807001CA
:101CE000FFE0007F8000000004000807FFF807FF06
:101CF000F8040808040808040808040808043E0852
:101D00000400080600180100600000000400080735
:101D1000FFF807FFF8040808040800040800040896
:101D200000043E00060000060000018000000000E4
:101D3000000000003F8001FFE003807006001804EF
:101D400000080402080402080203F00783F00002FE
:101D50000000020004000807FFF807FFF804080865
:101D60000008000008000008000008000408080738
:101D7000FFF807FFF804000800000000000004005E
:101D80000804000804000807FFF807FFF80400082B
:101D9000040008040008000000000000000000002B
:101DA0000006000007000001040001040001040017
:101DB0000307FFFE07FFFC0400000400000400000E
:101DC00004000807FFF807FFF8040C0800180000DB
:101DD0003E0004C7800503C80600F804003804006C
:101DE0001800000804000807FFF807FFF8040008BF
:101DF00000000800000800000800000800000800BB
:101E0000001800006000000004000807FFF80780C9
:101E10000807FC00007FC00003F80007C00078003E
:101E200007800807FFF807FFF80400080400080708
:101E3000FFF807000803C00000E000003800001EA3
:101E4000000007000001C00400F007FFF8040000D4
:101E5000000000007F8001FFE0038070060018048E
:101E6000000804000806001803003001FFE0007FAE
:101E70008000000004000807FFF807FFF8040408CA
:101E8000040400040400040400040400060C00031D
:101E9000F80001F000000000000000007F8001FF5A
:101EA000E00380700600880400880400C806003C37
:101EB00003003E01FFE6007F8400000004000807E5
:101EC000FFF807FFF8040808040800040C00040FDA
:101ED00000040BC00610F003F03801E00800000811
:101EE00000000001E0F803F0300630100418080488
:101EF0001808040C08040C080206180207F00781F1
:101F0000E000000001800006000004000004000062
:101F100004000807FFF807FFF804000804000004A5
:101F2000000006000001800004000007FFE007FF3A
:101F3000F004001800000800000800000800000875
:101F400000000804001007FFE00400000400000681
:101F5000000007E00007FE00041FE00001F8000099
:101F6000380001E0043E0007C00006000004000045
:101F700004000007E00007FFC0041FF80007C007C7
:101F8000F80007FF80043FF80007C004F8000700CE
:101F90000004000000000004000806001807C078D4
:101FA00005F1C8003E00001F800463E80780F806C2
:101FB000001804000800000004000006000007806C
:101FC0000007E008047C08001FF80007F800180864
:101FD00004E0080700000600000400000000000103
:101FE00000080600380400F80403E8040F08047C25
:101FF0000805F00807C0080700180400600000008A
:102000000000000000000000000000000000003F91
:10201000FFFE20000220000220000220000220001B
:10202000020000000000000000000800000700009F
:1020300000C0000038000006000001C000003000B1
:10204000000E000001000000000000000000200061
:10205000022000022000022000022000023FFFFEBA
:102060000000000000000000000000000000000070
:1020700000000000000800001000003000002000F8
:102080000030000010000008000000000000000008
:10209000000001000001000001000001000001003B
:1020A000000100000100000100000100000100002B
:1020B00001000001000000000000000000200000FE
:1020C00020000010000010000000000000000000D0
:1020D00000000000000000000000000000F00019F7
:1020E000F8001B180022080026080024080024100D
:1020F000003FF8001FF8000008000018000000046E
:10210000000007FFF80FFFF000181800100800206B
:1021100008002008003018001FF0000FC000000069
:102120000000000007C0001FF00018300020080069
:102130002008002008003C08001C1000006000007F
:10214000000000000000000007C0001FF000381869
:1021500000200800200800200804101007FFF80FD6
:10216000FFF0000010000000000000000000000769
:10217000C0001FF0001230002218002208002208C0
:10218000003208001E10000E2000000000000000B9
:10219000200000200800200801FFF803FFF80620B7
:1021A00008042008042008072000030000000000A5
:1021B00000000000000E000E6E001FF30031B100A1
:1021C00020B10020B1003191001F13002E1E00200D
:1021D0000E00300000000004000807FFF80FFFF8B1
:1021E000001008002000002000002008003FF80038
:1021F0001FF80000080000000000000000000020A0
:1022000008002008002008063FF8063FF8000008F4
:1022100000000800000800000000000000000000AE
:102220000000000003000003002001002001002046
:1022300003063FFE063FFC00000000000000000017
:1022400000000004000807FFF80FFFF800018800F5
:102250000300002FC00038F80020380020080000DC
:10226000080000000000000000000400080400084E
:1022700004000807FFF80FFFF8000008000008003E
:102280000008000000000000002008003FF8003FA8
:10229000F8001008002000003FF8003FF800100888
:1022A000002000003FF8003FF80000080000000098
:1022B0002008003FF8003FF8001008001000002040
:1022C00000002008003FF8001FF800000800000090
:1022D0000000000007C0000FF000183000300800B8
:1022E0002008002008003008001830000FF0000718
:1022F000C0000000000000002001003FFF003FFF81
:1023000000101100200900200800200800303800CB
:102310001FF0000FC00000000000000007C0001FF9
:10232000F0003818002008002008002009001011D3
:10233000001FFF003FFF0000010000000020080018
:102340002008002008003FF8003FF80008080010AF
:1023500008002008002000003000003000000000CD
:10236000000000000000000C78001E180033080078
:1023700023080021080021880021980030F000384F
:10238000600000000000000020000020000020008D
:1023900000FFF003FFF800200800200800200800DC
:1023A0000030000000000000000000002000003F9E
:1023B000F0007FF80000180000080000080020105E
:1023C000003FF8007FF00000100000000000000057
:1023D0002000003000003C00003F800023F000009F
:1023E00078000070002380003C00003000002000D6
:1023F000002000003C00003FE00023F80000E00067
:102400002700003E00003FE00021F80001E0003E10
:1024100000002000000000002008002008003838DC
:10242000003E680027800003C8002CF80038380000
:1024300020180020080000000000000020000030EC
:1024400003003C01003F830023EC00007000238068
:10245000003C000020000020000000000000000000
:1024600000000038080020380020F80023E8002F82
:1024700088003E08003808002018000070000000A6
:10248000000000000000000000000000000000004C
:1024900008000014001FF7FC3000062000020000B6
:1024A000000000000000000000000000000000002C
:1024B000000000000000FFFFFF000000000000001F
:1024C00000000000000000000000000000002000EC
:1024D000023000061FF7FC00140000080000000096
:1024E00000000000000000000000000000000018D4
:1024F00000006000004000004000002000001000CC
:10250000000800000400000400000C00001000009F
:102510003025000800000020B0150000E40100088C
:10252000A0270008B0150020A0070000F60B000847
:102530004816FF010D15FD158D01C101E101F101E5
:1025400001F9F5E54D1DBD014E1DEDF5F901015FE8
:10255000F191FD0575750330174575058DFD011168
:1025600019FDFD191141C1FDFDC1410101FFFF7AB6
:102570000102116E03050406070194060503595173
:10258000790139134919413948911C3E3F030135FE
:1025900083C7FE7C300BF0FC1E070303071EFCF014
:1025A0006B06062A1BFCFE161918B48EFCF8C948E7
:1025B000280AE0F0F8DECFCFC3C1F03B300B0F3F6D
:1025C00078E0C0C0E0783F0F2808C0C0FFFFC0C05F
:1025D000C0801C73F7C6013BE37B1889480A43801F
:1025E0000112FF2B127AC41A10012AFF05298A1939
:1025F0008C1A04012AFF05297518094040405F55CF
:10260000555575041A5F0C1911180C200F094989CA
:10261000790909090F200F112FFE02424ACA4A0305
:102620002C4202FE9E380C40504C4340404F5050CC
:102630005C40F11BF888012AFF0552F81B1F0801B6
:102640002A7F10149F80F03B8082016009E2A292F1
:102650008A868280808440807F172424A4FEA3225F
:102660001B22CC5A4115080601FF2A019E1604FFC1
:1026700002020239BC5B9008631208101004448205
:102680007F01808040432C102846818019281E84B9
:10269000E43C2724011AE40C11140402011AFFBDC2
:1026A00019C4496415FE225A862BFE920129BF11D6
:1026B0001DFF040807C51F20030C142241E11780E9
:1026C00040201806802D071820409E1201100B2074
:1026D0007028262120202438602301013B10123C61
:1026E0003D9212120240211A3F948B103FC54BC0FD
:1026F00080014BFC84080336C0C03CFF7F40014A88
:10270000FF075B40FF600138034A7F700373FCF8EA
:102710006CFFFE02018BFFFF0B0268036C1F1F049E
:10272000017BFFFF0B02741F038C7F3F07FFF8F84C
:10273000F0F0702001E60214801AFF0109122C0942
:10274000132D01FF01C0EDFFFFFE06011AFF01F985
:1027500015391603FF070201D10C12FFFFFF140900
:10276000101509151601FF01C1EDFFFFFF18011932
:1027700014091015391601FF01D204120201011AC1
:10278000FF01011209122A01FF01D71AFF0101FFFF
:1027900001FD05FF1F1F0F0F01E032017210000045
:040000050800018965
:00000001FF
